:10400000000003202D4301001B43010095C1000067
:104010001B4301009BC10000A1C100000000000083
:1040200000000000000000000000000081C6000049
:104030001B4301000000000031C700009D43010048
:104040001B4301001B4301001B4301001B430100F4
:104050001B4301001B4301001B4301001B430100E4
:104060001B4301001B4301001B4301001B430100D4
:104070001B4301001B4301001B4301001B430100C4
:104080001B4301001B4301001B4301001B430100B4
:104090001B4301001B4301001B4301001B430100A4
:1040A0001B4301001B4301001B4301001B43010094
:1040B0001B4301001B4301001B4301004989000011
:1040C00049890000498900004989000049890000A8
:1040D0001B4301001B4301001B4301001B43010064
:1040E0001B4301001B4301001B4301001B43010054
:1040F000000000001B430100911001009D10010011
:10410000A1100100A51001006D1701007917010031
:104110007D1701008117010085170100911701002B
:1041200095170100991701001B4301001B43010073
:104130001B4301001B4301001B4301001B43010003
:104140001B4301001B4301001B4301001B430100F3
:104150001B4301001B4301001B4301001B430100E3
:104160001B4301001B4301001B4301001B430100D3
:104170001B4301001B430100000000000000000081
:104180001D430100AF430100B3430100B7430100E9
:10419000000000001B4301001B4301001B43010002
:1041A0001B4301001B4301001B4301001B43010093
:1041B0001B4301001B4301001B4301001B43010083
:1041C0001B4301001B4301001B4301001B43010073
:1041D0001B4301001B4301001B4301001B43010063
:1041E0001B4301001B4301001B43010000000000B2
:1041F0001B4301001B4301001B4301001B43010043
:104200001B4301001B4301001B4301001B43010032
:104210001B4301001B4301001B4301001B43010022
:104220001B4301001B4301001B4301001B43010012
:104230001B4301001B4301001B4301001B43010002
:104240001B4301001B4301001B4301001B430100F2
:104250001B4301001B4301001B4301001B430100E2
:104260001B43010010B5054C237833B9044B13B13F
:104270000448AFF300800123237010BD80030020A9
:10428000000000009C09020008B5034B1BB1034964
:104290000348AFF3008008BD000000008403002045
:1042A0009C09020070470846114613F0AFB8084653
:1042B00011F0D0BF084611F0C5BF10B50421044667
:1042C00010F0DDFC204610BD10B5034B0360044622
:1042D00005F034F8204610BD2CA9010010B50446A5
:1042E000FFF7F2FF2046042110F0C9FC204610BD64
:1042F00038B5064B4C1E002A18BF13460546194612
:10430000224613F0A8F900232B5538BD33AA01002B
:104310004FF6FF7399421FBF0368CA0903EBC2033C
:1043200001F07F011ABF586800EBC1000020704700
:104330000A680B46526801461846104738B50B7993
:10434000042B04460D460CD0052B13D0022B17D19D
:10435000084613F066F9C4E9005000232372204692
:1043600038BD0D6828460DB113F05BF9C4E9005063
:104370000123F3E70B68DA880833C0E90032ECE781
:104380000023C0E90033F3E7B2F5803FF8B50646F5
:104390000F461546046807D2236809329B682046F9
:1043A000984708B1C580F8BD236820465B68394648
:1043B0009847012333710020F5E738B5C5880446D6
:1043C00001F12C002946FFF7A3FFA580206008B16A
:1043D000C388E38038BD000038B50023836043689C
:1043E00004464BB905682868036828211B6898476C
:1043F00018B1034B4360606038BD01232B71FAE7AD
:1044000001001F008268F8B50D464168032A044682
:1044100001F108011AD808460023D7B2461AF6B2AD
:10442000BE4206D210F8016B002E08BF43F0010314
:10443000F4E75BB902202871D8B2B84203D2C85C55
:10444000E8540133F8E70023AB54F8BD00238B5444
:104450002068A2688368B3B1DE88B2420AD1002620
:10446000B24209D09F1911F806C03F7ABC4501D16C
:104470000136F5E71B68EEE79A8801329A8005223B
:104480002A712B60E1E76168FFF77EFF226891687F
:1044900001609060002203466260F0E738B50D4687
:1044A0004168044649B18268CB889A4205D15200DE
:1044B00001320068FFF768FF6060636823B1A2689B
:1044C0001344511CA1601D7238BD2DE9F0470379DA
:1044D000DA0705460C4610D500688B68002263B1E8
:1044E000984232D183882168013B9BB2838023B9F3
:1044F000036842B31360FFF71BFF2B79DB0608D577
:104500002E8804F12C003146FFF702FFA38E0380B2
:10451000A6862B7913F0600F1CD02E884FF6FF7AF9
:1045200004F12C09564513D031464846FFF7F0FEFA
:1045300021460746B0F80680FFF7C7FFA38E3B80F1
:10454000A6864646EEE7A360D5E71A461B68C6E78F
:104550002E806E8000232B71BDE8F08700000000E4
:104560002DE9F74F0B782B2B044630D02D2B2FD174
:10457000013101250B78A3F13002092A01D92E2B34
:1045800028D1DFF86CB28846002000214FF0993A1C
:104590004FF00A0EC4461CF8013BA3F13002D2B220
:1045A000092A1DD88B4508BF824520D30EFB01F395
:1045B000A0FB0E0119440023D2B2DF43D6438F4241
:1045C00008BF864213D380185941E046E2E7013123
:1045D0000025CFE700232370204603B0BDE8F08F0D
:1045E0002BB9E5B1B1F1004F08BF01280FD3784FC7
:1045F00000234FF0FF368F4208BF864203F10109C6
:1046000010D200230A2211F027FC4B46F3E70223C5
:104610004042237061EB4101C4E90201DCE703235E
:104620002370F9E7A3EB080202EB0806434618F8EB
:10463000017BA7F1300CBCF1090F36B2F4D92E2F53
:104640001DD1C4460FF28019D9E900894FF00A0E36
:1046500063460CF1010C1F78303FFFB2092F0ED8D2
:10466000894508BF8045F3D3A0FB0E230EFB013321
:10467000D01906F1FF3643F1000136B2E8E71A78A7
:1046800002F0DF02452A65D15A782D2A25D19F1CD8
:104690004FF0010C00224FF00A083B4617F801EBDF
:1046A000AEF1300E5FFA8EF9B9F1090F26D808FB8A
:1046B00002E29319B3F59A7FEFDDBCF1000F13D03E
:1046C000DFED447A9FED447A002D18BFF0EE477A73
:1046D00001232370C4ED027A7EE72B2A14BF5F1CEE
:1046E0009F1C4FF0000CD5E700222DB13B4B04215D
:1046F0002170C4E902236FE7394BF8E7BCF1000FE2
:1047000000D052421B78002B7FF464AF164406F1B0
:1047100026034C2B27D8002908BFB0F5000F22D262
:10472000002E07EE900AD4BF2E4B2F4BF8EEE77AFF
:10473000D8BF764203F1180286B19A420CD0F10735
:1047400048BF93ED007A4FEA660648BF67EE877A66
:104750000433F1E70022D5E7DFED247A002DB7D04E
:10476000F1EE677AB4E710F0F9FF002ED4BFDFF85E
:1047700084A0DFF884A080468946D8BF764200270F
:10478000C6B1092F12D0F3070DD50AEBC7026B464D
:104790001068516803C340464946DDE9002311F023
:1047A00013F88046894676100137E9E7DFF84C9028
:1047B0004FF0000815B109F1004399460423237016
:1047C000C4E9028908E700BF98999999999901006D
:1047D000FFFF0F0000000000000000800000F0FF5D
:1047E0000000F07F44A901005CA901000000C07F27
:1047F0009999991978A90100C0A901000000F87FD2
:1048000007EE900AB8EEE77ADFED237A9FED236A90
:10481000C7EE276A9FED227AC6EE877AF7EE006A26
:1048200076EEE77A9FED1F7AF5EEC07AF1EE10FA98
:10483000D8BFF0EE467A67EE877AB3EE027A76EE6C
:10484000E76A27EE877AA6EE867AB1EE006ABCEEBA
:10485000C77A17EE100A9FED147A27EE877A0002C6
:10486000A6EE867A00F47840BCEEC77A17EE103ACE
:104870009FED0E7A67EE877AB2EE007AE6EE877ADF
:10488000DB0003F4FC630343FCEEE77A17EE902AA7
:10489000C2F3C4001843704700006F4300000000DB
:1048A000E17A143FCDCC0C3F00001842000040429A
:1048B00010B586B004460C4968460FF01CFC6946EA
:1048C00003A80FF075FC214603A80FF0C2FC0146B7
:1048D00006480DF091FE03A80FF0C8FB68460FF0E4
:1048E000C5FB06B010BD00BF62AA0100041F002076
:1048F0001FB5084B0849002201A81A700FF0FBFBF6
:1049000001A8FFF7D5FF01A80FF0B0FB05B05DF8D7
:1049100004FB00BFA603002067AB01001FB5084BD6
:104920000849012201A81A700FF0E5FB01A8FFF762
:10493000BFFF01A80FF09AFB05B05DF804FB00BFB4
:10494000A603002078AB010030B587B00546FFF71D
:10495000AFFF114B1B78EBB1104C2368D3B1294644
:1049600003A80FF025FC0E4903A80FF07EFC0146BA
:1049700068460FF01DFC03A80FF078FB029A00991F
:10498000206804F0FDFD2068012105F00FF868465D
:104990000FF06CFB07B030BDA603002064040020BC
:1049A000B10402002DE9F0438DB006A804F01CFE0E
:1049B000079B002B54D02D492D4CDFF8C4902D4F70
:1049C00068460FF098FB694603A80FF0F1FB0799C2
:1049D00003A80FF05EFCFFF76BFF03A80FF046FB88
:1049E00068460FF043FBDDE906562E44B54237D04A
:1049F00015F8011B0A2922D1DFF88880214640469C
:104A00000FF0C7FB1C4B1D49012268461A700FF0BE
:104A100072FB694603A80FF0CBFBD8F8081003A877
:104A20000FF037FCFFF790FF03A80FF01FFB68465D
:104A30000FF01CFB394620460FF0CCFBD6E7A368ED
:104A4000B3F5AF6F03D220460FF0E5FBCEE7494642
:104A500003A80FF050FB03A8FFF776FF03A8E7E7D2
:104A600006A810F0FBFA0DB0BDE8F08330AB0100F2
:104A7000CC0300202FAB0100AC0300203EAB0100B3
:104A80004CAB0100C003002009B1FFF731BC7047F7
:104A90002DE9F0478AB03C493C4D3D4C04A80FF04D
:104AA0002AFB04A8FFF704FF04A80FF0DFFA294649
:104AB00006A805F10C02049010F00AFB049B0022EA
:104AC0004FF00C08CDF8148004A81A7305F0BAFB57
:104AD00004A810F0C3FA05F063FB0646206004202A
:104AE0000FF01CFD2B4B0360014630462A4E06F0AA
:104AF00085FE3146206806F061FE102227490746F0
:104B000006F0F4FF264B814618604FF48A700FF0D0
:104B100005FD824603F044FF5146484604F042FC3E
:104B200042462049384606F0E1FF804604200FF057
:104B3000F5FC1D4B03600146404604F041FD38463C
:104B400006F0FAFF206806F066FE314604F00CFB22
:104B5000206806F060FE04F087FB144901A80FF0FE
:104B6000CAFA01A904A80FF023FB294604A80FF0F4
:104B70007CFBFFF79DFE04A80FF078FA01A80FF068
:104B800075FA0AB0BDE8F0876EAA010000AB01001B
:104B9000A803002014A9010091AA0100DBAA0100CA
:104BA00064040020B6AA01002CA901007DAA01001E
:104BB00030B52DED048B87B0CDE90201DFED289AE9
:104BC0009FED289A1546002407EE904AF8EEE77A02
:104BD000F0EE498AE7EEA98A0134B1EE048AB0EE1C
:104BE000680A0CF035FEDDED027AF8EEE77AE0EEC9
:104BF000087AB0EE680AFDEEE77ACDED047A0CF0A3
:104C00006FFEDDED037A049917480095F8EEE77A18
:104C10000423E0EE087AFDEEE77A17EE902ACDED58
:104C2000057A02F069F800950323DDE904120E48C5
:104C300002F062F8062CC7D141230093DDE902128D
:104C40000323094802F082F900950223DDE90212EC
:104C5000054802F051F807B0BDEC048B30BD00BF31
:104C6000960A863FD80FC9BFD80300202DE9F04728
:104C7000002504460E46A946A28C276AABB29A428A
:104C80000FD907EBC3089A46D8F8041019B1336856
:104C900030465B68984747F83A900135C8F8049069
:104CA000EAE70023A384BC424FF6FF73238507D0B5
:104CB000336839465B683046984704232462E384AE
:104CC000BDE8F0871FB5036853B11A79101F01289A
:104CD00001D9022A04D1194601A8FFF72FFB019937
:104CE000084605B05DF804FBC0E9001201228260AD
:104CF000027370478B8C30B5013B0D6A9AB205EB9D
:104D0000C204616849B1638835F832509D4204D9C4
:104D10005D1C11EBC301658005D1002303604FF6D4
:104D2000FF73838030BD016003EBC213F9E72DE907
:104D3000F3470E8D4FF6FF739E4205460C4617460D
:104D40000CD0314604F12000FFF7E2FA03882385F6
:104D50002860AE80284602B0BDE8F0878B8C53B146
:104D60006E463046FFF7C6FF009B23B196E803006E
:104D700085E80300EEE7A28CE38C93421CD1B3F5E7
:104D8000007F43D05B009EB2236A3968A3424FEA9A
:104D9000C60234D10B68384611469847002835D0F2
:104DA0002346024604F1200153F804CB42F804CB19
:104DB0008B42F9D12062E684B4F82480D4F820A094
:104DC00008F101039BB2B3F5007FA3843B680CBFDD
:104DD0007F268026F1001B68384698470AEBC809F1
:104DE000002808BF00260023C9F8040021462AF83D
:104DF00038602846A9F80230FFF77CFFAAE7D1F80F
:104E0000088038461946C0470028D3D100232B60BC
:104E10004FF6FF73AB809DE737B50A6804460D4631
:104E200068460C31FFF783FF009B4FF6FF7233B9E2
:104E30000121297120462360A28003B030BD0021EA
:104E4000DA801971BDF80420F4E737B50A68044622
:104E50000D4668460C31FFF76AFF009B43B90122FB
:104E600023604FF6FF732A71A380204603B030BD44
:104E7000BDF804202360A280F7E72DE9F0418AB055
:104E800001AC84E80E00109D0F4671B907914FF6F2
:104E9000FF73ADF82030079820B107A82946FFF727
:104EA0008CFA07980AB0BDE8F0810488DDF8088024
:104EB000214605F12C00FFF72BFAADF818400590BC
:104EC000C0B1C388ADF81A30012607AC0599D9B135
:104ED0009EB12046FFF732FA089A42450DD1079954
:104EE00000239A4212D017F803C0C85C844504D14D
:104EF0000133F6E74FF6FF73E4E7294605A886F08D
:104F00000106FFF75AFAE1E70791C0E705AB93E81E
:104F1000030084E80300BEE770B58AB003AE86E8FC
:104F20000E000279202A08BF044696E8070007AD64
:104F300018BF002485E80B0044B10E9B009395E850
:104F40000E002046FFF799FF0AB070BD2046FBE730
:104F500030B504460D46D1E9000187B00123039224
:104F600004938DF8143028B1009106AB13E90E00BC
:104F7000FFF7D2FF6B68C4E90003204607B030BDDD
:104F800030B585B001466846FFF7EAFA9DF8003073
:104F9000013B032B48D8DFE803F00218242FDDED96
:104FA000027A9FED257AF4EEC77AF1EE10FA3BDB38
:104FB0009FED227AF4EEC77AF1EE10FA34D8FDEEC6
:104FC000E77A17EE900A05B030BDDDE9020110F175
:104FD000004241F10003012B08BF002A28BF002036
:104FE000F1E7DDE9020100238B426FF0004208BFC8
:104FF000824238BF0020E6E7DDE902450022104B7F
:105000002046294610F066FE0028DCD008A3D3E92C
:1050100000232046294610F053FE0028D3D0204616
:10502000294610F081FECEE70020CCE7AFF30080E8
:105030000000C0FFFFFFDF41000000CFFFFFFF4E79
:105040000000E0C10000000038B5057904460B46B9
:10505000018815F0100003D003F12C00FFF758F978
:10506000023D1C2D65D8DFE805F02E6432340F6454
:1050700064641164156437646464646464646464BF
:105080006464176422644C00207838BD206820EAEC
:10509000E070FAE72068F8E7D0E9000100238B42CE
:1050A0006FF0004208BF824238BF0020EDE7D0E930
:1050B000000110F1004241F10003012B08BF002A5A
:1050C00028BF0020E1E72046FFF75AFFDDE7206810
:1050D000FAE720680830F7E7D4ED007A9FED187AF8
:1050E000F4EEC77AF1EE10FA23DB9FED167AF4EEB8
:1050F000C77AF1EE10FA1CD8FDEEE77A17EE900AA7
:10510000C3E7D0E9004500220F4B2046294610F0A6
:10511000E1FD0028B9D008A3D3E9002320462946A1
:1051200010F0CEFD0028B0D02046294610F0FCFD3E
:10513000ABE70020A9E700BF0000C0FFFFFFDF4191
:10514000000000CFFFFFFF4E0000E0C107B502AB3B
:1051500003E90300009848B103793BB10199FFF7D7
:1051600073FF002806DB642806DCC2B2104603B0D9
:105170005DF804FB0022F9E76422F7E72DE9F0432C
:1051800087B06C4604AD184E0E9F84E8030090462D
:105190002146164A28469946FFF7DAFE3146284648
:1051A000FFF790FD494602464046FFF76DFC214659
:1051B00028460F4AFFF7CCFE3A7895E80300FFF740
:1051C000C5FF0C4A3870214602A8FFF7C1FE3146E0
:1051D00002A8FFF777FD0246DDE90F01FFF754FC57
:1051E00007B0BDE8F08300BF33AA01001BAB01008C
:1051F00005AC01000FAA0100F0B58DB0044604AD66
:1052000006AE85E80600304629461A4AFFF7A0FE9A
:10521000227996E80300FFF799FF08AE207129462E
:105220003046154AFFF794FE04F116031027019348
:1052300004F11503009302973B4696E80300621DB4
:105240000AAEFFF79BFF294630460C4AFFF780FE67
:105250001223029304F13703019304F13603009300
:1052600004F126023B4696E80300FFF787FF0DB0E6
:10527000F0BD00BF6BF3010050AA01009DAB01001F
:10528000437E6BB9D0E9043293423DBF5A1C0261A0
:105290001B784FF0FF3323EAE37303760123437651
:1052A000007E704738B5044600252046FFF7E8FF2A
:1052B0000A2806D8092808D248B101232373002000
:1052C0000AE00D2801D02028F7D16576EDE7237B91
:1052D000002B14BF0220012038BD70B505464C1EBE
:1052E000002614F8010F48B12846FFF7C9FF20B186
:1052F0002378834203D16E76F3E7022070BD03204A
:10530000FCE72DE9F04387B006460D46FFF7B8FFEE
:10531000002427462F28E3B20BD939280BD80134B3
:10532000402C23D033197776D8773046FFF7A8FF83
:10533000F0E72B28F3D0A0F12D02D2B2012AEED94A
:1053400000F0DF02452AEAD03344002283F820200F
:1053500006F1200102A8FFF703F99DF80830013B90
:10536000032B62D8DFE803F03924043E3F23EBE748
:10537000DDE90489B9F1010F08BFB8F1000F07D2C8
:105380000A232B71C5F80080002007B0BDE8F08328
:10539000F1696846FFF759FD009B0BB90420F4E75B
:1053A0001A222A71BDF804202A80C3E90089EBE79C
:1053B000DDE9048918F1004249F10003012B08BF1F
:1053C000002A01D20C23DCE7F1696846FFF73DFDB6
:1053D000009B002BE2D01C22E3E70E232B71049BE1
:1053E0002B60D1E7DDE904894946404610F0E4FC32
:1053F000074610F091F902460B464046494610F028
:105400004BFC18B10E232B712F60BDE7F169684684
:10541000FFF71BFD009B002BC0D01E222A71BDF898
:1054200004202A80C3E90089AEE70320ADE738B540
:1054300004460D46FFF724FFA8424FF0000004BFCA
:105440006076012038BD10B550F8044B07C886B00F
:1054500003AB83E8070014F1380003D000940ECBAF
:10546000FFF75AFD06B010BDF0B5064687B0081D1F
:105470000D46FFF7E8FF05F11402044607CA03AB27
:105480006F6883E8070054B100970ECB2046FFF702
:1054900043FD6B68C6E90003304607B0F0BD204607
:1054A000F7E77F2837B50C46C1B204D82046FEF78F
:1054B000F5FF03B030BD800901F03F0182B2002347
:1054C00061F07F011F2A8DF800308DF80110C3B202
:1054D0000DD863F03F038DF802300DF1030515F888
:1054E000011D0029E5D02046FEF7D8FFF7E7C0F3FD
:1054F000891003F03F0363F07F030F288DF802301B
:10550000C3B205DC63F01F038DF8033001ADE6E79D
:1055100003F03F03801163F07F0360F00F008DF80C
:1055200003308DF804000DF10505D8E72DE9F047AB
:105530008046FFF7A5FE0024374E88F8194007463D
:1055400025464046FFF79CFE8742014688F81950E1
:105550005BD010B90220BDE8F0875C2851D14046ED
:10556000FFF78EFE0028F5D075283CD188F8195039
:105570004FF004094FF0000A4046FFF781FE002873
:10558000E8D040288BBF20F020023038373AC3B231
:1055900088BFD3B20F2B01D90320DCE709F1FF3913
:1055A00043EA0A1319F0FF091FFA83FA88F8195021
:1055B000E2D10AF520539BB2B3F5806F02D2CAF351
:1055C0000904BEE70AF510539BB2B3F5806F3DBFE7
:1055D000CAF3090A4AEA842A0AF58030504641464D
:1055E000FFF75FFFADE700239A5D9919002AD3D03A
:1055F000904203F10203F7D149780029CCD088F812
:1056000019504046FEF74AFF9BE7D8F80430002BBC
:105610000CBF042000209EE71DAB01002F280ED9EF
:10562000392803D95E2803D97A2803D80120704786
:10563000402804D95A288CBF002001207047002040
:10564000704770B50446FEF7C7FE2046FFF718FE08
:1056500027281ED022281CD02046FFF711FE054621
:10566000FFF7DCFF98B10026294620466676FEF754
:1056700015FF2046FFF704FE0546FFF7CFFF002881
:10568000F2D16368002B0CBF0420002000E003204F
:1056900070BD2046FFF74AFFFAE72DE9F04F5FFAA9
:1056A00083F98DB004460D46B9F1000F00F08580F6
:1056B00000234376FFF7F6FDB8B97D212046FFF7BA
:1056C000B6FE88B90DF124082046FFF7BAFF60B98D
:1056D0002046FFF7E7FD064638B93A212046FFF796
:1056E000A6FE28B9032000E000200DB0BDE8F08F31
:1056F000D4E9013213448DF82C601E72D4E90132D2
:105700000833CDE90932E369009398E80E00284692
:10571000FFF7B3FB074600284BD1D4F81CB005A80F
:105720005946FFF779FB059E0EB90420DDE759467F
:1057300007A8FFF771FB079F002FF6D0BDF820A048
:10574000A6F806A06988BDF818304FF6FF7291429E
:105750002DD00BF12C000393FEF7DAFD039BC380E1
:10576000A5F802A031462046FEF74CFE09F1FF33B2
:105770004FF000023946204600F022F80028B4D14C
:105780002046FFF78FFD0028AFD17D212046FFF78F
:105790004EFE0028A8D12C212046FFF748FE002805
:1057A000A0D02046FFF77EFD00288DD09DE72B80FE
:1057B000D6E7E169FEF789FED8E7052095E7000006
:1057C000F8B506460C461F46FFF76CFD0546B8B90E
:1057D0003046FFF755FD662842D013D8272803D05E
:1057E0005B2817D0222840D13046FEF7F5FD304621
:1057F000FFF79CFE054618B921463046FEF702FE2B
:105800002846F8BD742822D07B2812D06E282CD1CF
:10581000184921E0402323714FF6FF7323806380F2
:105820004FF000023B462146304600F029F805467D
:10583000E6E7202323714FF6FF73238063804FF048
:1058400000023B4621463046FFF727FFEFE70623DD
:1058500023710949012323703046FFF73EFDE6E737
:105860000623237125700549F6E721463046FFF7E8
:1058700048FDDCE718AB01000DAB010012AB0100E5
:105880002DE9F347DDB204460E46002D46D0002335
:105890004376FFF707FDA8B95D212046FFF7C7FD56
:1058A00078B94FF6FF7A013DD4F81C906846494616
:1058B000FFF7B2FADDF80080B8F1000F05D104203F
:1058C00000E0002002B0BDE8F0877188BDF80470E8
:1058D000514521D009F12C00FEF71AFDC7807780D1
:1058E0002B464FF0000241462046FFF769FF002893
:1058F000E8D12046FFF7D6FC0028E3D15D21204601
:10590000FFF795FD0028DCD12C212046FFF78FFD05
:105910000028C9D10320D5E73780E0E70520D1E78B
:105920002DE9F04FB5B00CAE0546844930460EF077
:10593000E2FB31461CA80EF03BFCA9681CA80EF047
:10594000A8FCFEF7B5FF1CA80EF090FB30460EF049
:105950008DFB0DF13C094FF4802300242F6878491A
:105960001893AD688DF834404FF6FF7348460E9497
:105970008DF86C400C91CDF85C90ADF86430ADF8CA
:105980006E30FFF773F98DF834400C9C3D440E984F
:1059900028B103680E932146FEF7CAFCF7E78DF89D
:1059A0006C00CDE91C601E908DF87C008DF889009C
:1059B0004FF00A034FF000021AA91CA8CDE9207588
:1059C0002396FFF7FDFE044640B99DF888302BB1C1
:1059D0009DF86C3013F0080F18BF03241D9818B100
:1059E0001C9B1968FEF7A4FC08AF0CB35549384658
:1059F0000EF081FB39461CA80EF0DAFB524B1CA8B6
:105A000053F824100EF031FCFEF79EFF1CA80EF098
:105A10002DFB38460EF02AFB00250C9C0E98002822
:105A200000F0848003680E932146FEF781FCF5E7C1
:105A30003146464A464D1CA8FFF756F91CA8FFF709
:105A400002FD1C9B00902A4669461CA80193FFF7A3
:105A50007FFA40491CA8FFF735F90C2102463E4861
:105A6000FEF746FC3D4A69461CA8FFF771FA394922
:105A70001CA8FFF727F9142102463948FEF738FC25
:105A8000384A69461CA8FFF763FA37491CA8FFF794
:105A900019F90A2102463548FEF72AFC0DF1140ACD
:105AA000314604A8324AFFF71FF99AE80700049B21
:105AB0001D9309AC0DF178080DF1080B88E807007B
:105AC00084E8070021951CA90125584622958DF8E8
:105AD0008C50FFF7C9FC9BE806002648FFF78CFBBB
:105AE000314604A8224AFFF7FFF89AE80700049B12
:105AF0001D93214B88E8070084E807001CA938465D
:105B0000CDE921358DF88C50FFF7AEFC97E8060003
:105B10001A48FFF771FB1A491CA80EF0ECFA1CA8F2
:105B2000FEF712FF1CA80EF0A1FA76E748460C9982
:105B3000FFF79CF8284635B0BDE8F08F11AA0100A8
:105B40001C00002024AA010004000020D906020045
:105B500076E8010033AA010020000020CCAB010050
:105B60003600002026F8010030AA01002C00002099
:105B700005AC01004C00002078E701009C000020EB
:105B800036AA0100F8B51D4E1D4F1E481E4D1F4C74
:105B90004FF4A072F02100F0B1FD314638460EF00E
:105BA000AAFA38461A4F2A4621460FF063F83146C2
:105BB00038460EF0A0FA3846164F2A4621460FF016
:105BC00059F8314638460EF096FA2A4621463846AC
:105BD0000FF050F8104B4EF27F721A800F4B41F2CB
:105BE00006121A800E4B42F62B221A800D4B4122D0
:105BF0001A800D4B42F2E9121A80F8BD2FAB01005A
:105C0000CC030020D8030020000000206D400100DC
:105C1000C0030020B0030020A2030020A403002042
:105C20009E0300209C030020A00300202DE9F743E1
:105C300020EAE076C6F5A0759542A8BF1546002D6E
:105C40000F46994616DDDFF8348021EAE17407EB50
:105C50000903F02BA8BFF0239C420BDA2046FEF785
:105C6000CFFD224600902B463146404602F046F9D1
:105C70000134ECE703B0BDE8F08300BFD803002097
:105C80002DE9F04F642B924628BF642387B00AFBAE
:105C900003F4642394FBF3F4234B244DBDF8442018
:105CA0001B8805924FF008084FF0040906460F467E
:105CB000052C02930A4653460146CDE90089284641
:105CC000B8BF0524BDF840B001F0AEFA184B1B88F0
:105CD000CDF80080CDE901933A4653463146284637
:105CE00001F01CFA23463A4631462846CDE9019B8D
:105CF000CDF8008001F098FAA31F4FF6FF720092D2
:105D0000F11C7A1C284623EAE37302F0F7F8059B9E
:105D1000109307F10B02231FB11C284607B0BDE802
:105D2000F04F02F0EBB800BFA4030020D80300201E
:105D30009E030020702837B5044601EB000518DCEF
:105D40006F2D18DD154B16481B88009370224FF4F9
:105D50009073102102F0D2F8CF2D0CDD41F6A8137C
:105D60000093D0224FF4A07300210D4802F0C6F832
:105D700001E0D028F0DD162C2246B8BF1622CD2D2A
:105D8000A8BFCD25954207DD41F6871300939021EA
:105D9000AB1A034802F056F803B030BDA003002050
:105DA000D803002010B5841E214600205E234FF446
:105DB000A072FFF73BFF20465E21BDE81040FFF7D1
:105DC000B9BF000070B5254B254C198888B0204616
:105DD00001F078FA2046042101F07CFA214902A85A
:105DE0000EF089F902A905A80EF0E2F91E4905A8EE
:105DF0000EF03BFA02250146E1234622009520469B
:105E000001F0B6FF05A80EF031F943F24B2602A8C7
:105E10000EF02CF9204600961223D822772102F0AA
:105E200011F80095E123A9221049204601F0F4FD64
:105E3000204600961223D822DB2102F003F8E1234A
:105E400040F2011200950A49204601F0E5FD0021CB
:105E5000204601F03FFA08B070BD00BFA203002049
:105E6000D803002008AA01002000002036000020EE
:105E70002C00002013B500242046FEF7C1FC22466A
:105E800000904FF4A07300211848013402F036F856
:105E9000F02CF1D1164B15481B88009370224FF45B
:105EA0009073102102F02AF841F68713009316220E
:105EB000B72390210D4801F0C5FF41F6A8130093C8
:105EC000D0224FF4A0730021084802F017F8094BC4
:105ED00006481B8801931F230093D1224FF4A0731F
:105EE000002102F067F802B010BD00BFD803002007
:105EF000A00300209C03002013B50C4B0C4C1B8806
:105F000001931F23009320464FF4A073D122002158
:105F100002F050F841F6A8130093D0224FF4A0737A
:105F20000021204601F0EAFF02B010BD9C030020D2
:105F3000D80300202DE9F04F89B09B469DF84850CA
:105F4000BDF84C3005936D086F4215FB05F3804694
:105F50008946924604933C4604FB04F303930AEB00
:105F60000403069308EB04033E460793039B049A3D
:105F700006FB063393420BDC059B01930BEB0603F8
:105F8000009309EB0602069B0799064800F070FA99
:105F90000136B542EADA0134A542DDDA09B0BDE8DE
:105FA000F08F00BFD803002070B52DED068B07EEF3
:105FB000900A86B0CDE904019FED2DAAB8EEE79ACC
:105FC0001646002407EE904AF8EEE78A032568EEAD
:105FD0008A8A0134B0EE680A0BF03AFCDDED057AEE
:105FE000F0EE409AB0EE680AB8EEE78A0BF078FC63
:105FF000F1EE0C7AB0EE497AA9EEA77A01960095F7
:10600000BDEEC77A8DED027AB0EE487AA0EE277A1F
:10601000FDEEC77AB0EE497ACDED037AF0EE007A64
:10602000A9EEA77ADDE90223A0EE278AF0EE477AEF
:10603000FDEEE77ABDEEC87A17EE900A17EE101A59
:10604000FFF778FF00960223DDE90212094800F00D
:106050007DFF082CB6D141230093DDE904122B46C5
:10606000044800F073FF06B0BDEC068B70BD00BFA6
:10607000D80F493FD80300202DE9F04304468DB0E6
:106080000D467348002101F025F90222216870486D
:1060900001F066FB94F84E30B4F84A2000F117077F
:1060A000022097FBF0F77F4207F1580005F10B0142
:1060B000002B00F0C980FFF777FFDFF8A491644858
:1060C000B9F80010022601F0FDF86B1C07F1670219
:1060D000216800965E4801F09FFCB4F84A105C48C5
:1060E00001F0F0F821790A2203A80EF023F803A9A1
:1060F0000722574801F08AFB04228046554954483C
:1061000001F02EFB00EB08073744072397FBF6F757
:10611000C7F1500700933A4605F1190303A94C480B
:1061200001F026FE08EB070204233244009349499C
:10613000474805F12E0301F06FFCB4F84A104448BB
:1061400001F0C0F80121424801F0C4F805F148030C
:106150005022009640493E4801F05EFC00213C4838
:1061600001F0B8F805F10F07B9F80010384801F050
:10617000A9F83B469A22611D0096354801F04CFC77
:106180003146334801F0A6F8344906A80DF0B3FFB4
:1061900006A909A80EF00CF804F1160109A80EF0E2
:1061A00064F83B464FF4957201460096284801F08A
:1061B000DFFD09A80DF05AFF06A80DF057FF0021DA
:1061C000234801F087F8B4F84C200192B4F84A2033
:1061D000637D009205F1230190229A20FFF750FD84
:1061E00005F13307B9F80010194801F06BF83B4688
:1061F0009A2204F126010096154801F00DFC314663
:10620000134801F067F83B464FF4957204F13701EB
:1062100000960F4801F000FC00210D4801F05AF8EB
:10622000B4F84C200192B4F84A2094F83630009229
:1062300005F1470190229A20FFF722FD03A80DF0F7
:1062400015FF0DB0BDE8F083FEF7B2FC35E700BFE7
:10625000D803002052AA010054AA01005BAA010041
:10626000A203002010B5084CFFF704FE20461021C1
:10627000FFF702FF04F150007421FFF7FDFEBDE8B7
:106280001040FFF79FBD00BF4C0000201FB54FF42A
:10629000E1311448144C0CF053FC4FF4967005F0A7
:1062A00082FF124901A80DF026FF01A8FEF700FBAE
:1062B00001A80DF0DBFE2046002100F017FD20466E
:1062C000032100F077FA2046012100F011FD0022A1
:1062D0001146204600F0F9FFFEF7DAFBFFF7C2FF98
:1062E00004B010BD041F0020D8030020B9AB01008A
:1062F00010B50B4C1020FFF755FD10212046FFF77D
:10630000BBFE7420FFF74EFD04F150007421FFF72F
:10631000B3FEFFF7F1FDBDE81040FFF753BD00BF2E
:106320004C00002030B5274C237887B0C3B12649F4
:1063300068460DF03DFF00232449237068460DF0A8
:10634000C7FF002831D0224903A80DF0D4FE03A8CE
:10635000FEF7FAFA03A80DF089FE68460DF086FEF6
:106360001C4C2378C3B91C4D2B78ABB14FF4FA7099
:1063700005F019FF194B186805F04DFA02F074FF8B
:10638000237817492B7003A80DF0B5FE03A8FEF77C
:106390008FFA03A80DF06AFE237823B10E4B1A780A
:1063A0000AB901221A7007B030BD6846FFF7B8FA83
:1063B0000028D2D0694605480DF0EBFEFFF798FFA4
:1063C000CBE700BFAC030020C0030020B0030020D7
:1063D00086AB0100A6030020BC030020A803002018
:1063E0009FAB0100016070477047006802F078B908
:1063F000006802F0CBB9006802F0CBB982B06B46FE
:1064000083E8060093E80600006802B002F090B945
:10641000006802F0ABB938B504460D4646200021AD
:106420000EF0E8FA29462046BDE83840FFF7E0BF05
:1064300038B504460D46462001210EF0DBFA294608
:106440002046BDE83840FFF7D3BF002070477047B3
:10645000B0F960007047B0F96400704737B505685F
:1064600090F824400094AC6AA04703B030BD00000F
:106470002DE9F04F85B005460846DDE90E181C46AB
:10648000174601238A1A002A85F87F30A4EB0003FF
:10649000B8BF5242002BB8BF5B429A4205DC0E46A1
:1064A000214634463E46074630468F4205DC2646A6
:1064B000044630460E4639463746061B002EB8BF06
:1064C0007642A7EB010A8442B4BF01204FF0FF30AF
:1064D0009A42039602904FEA6A0689464FF00003FB
:1064E0003EDDB94520DC039AB61A03F101030FD54E
:1064F000012B56442A680ED1D2F810B043460A4602
:1065000028462146D847029B09F101011C4400237B
:1065100009F10109E5E7CDF80080D2F81CB0284662
:106520000A462146D847EEE73BB12A68CDF80080FD
:10653000D6690A4621462846B047002385F87F30B1
:1065400095F87E30002B34D1012185F87E1045204E
:106550000EF050FA184805B0BDE8F04FFFF758BFED
:10656000B9451EDC039AB61A03F101030ED5012BBF
:1065700056442A680DD1D2F810B043462246284628
:10658000D847029B09F101011C44002309F10109CC
:10659000E6E7CDF80080D2F820B028462246D8475A
:1065A000EFE7002BC9D02A68CDF80080166A224692
:1065B000C1E705B0BDE8F08F680400202DE9F34184
:1065C0000E1E044615469846C0F29080002AC0F27E
:1065D0008D80036EB34240F38980436E934240F353
:1065E000858090F87E3093B10027424B00938DF860
:1065F00005708DF8047002AB80F87E7013E9060018
:106600003D48FFF7FBFE394645200EF0F3F9002127
:1066100045200EF0EFF9002146200EF0EBF9E36E75
:106620009E4220D02A213448FFF7F5FE46EA06476D
:10663000012146200EF0DEF9390E2F48FFF7D8FE73
:10664000C7F307412C48FFF7D3FEC7F307212A48B9
:10665000FFF7CEFEF1B22848FFF7CAFE0021462020
:106660000EF0C8F9E666A36E9D4220D02B21224889
:10667000FFF7D1FE45EA0546012146200EF0BAF9A2
:10668000310E1D48FFF7B4FEC6F307411A48FFF765
:10669000AFFEC6F307211848FFF7AAFEE9B2164875
:1066A000FFF7A6FE002146200EF0A4F9A5662C21D6
:1066B0001148FFF7B0FE012146200EF09BF91FFAAA
:1066C00088F10D48FFF797FE94F87F3073B994F87E
:1066D0007E305BB9012184F87E1045200EF08AF9E6
:1066E000054802B0BDE8F041FFF792BE02B0BDE838
:1066F000F08100BF80F0FA02680400202DE9F0412B
:106700002B4B036000254FF6FF7604468846456014
:1067100080F82C5080F8315080F83250C664012146
:10672000452017460EF066F9012145200EF01EF9AE
:10673000012146200EF05EF9012146200EF016F9E7
:10674000012147200EF056F9012147200EF00EF9E5
:10675000012384F87B3084F87E3084F8803084F81C
:10676000813084F8823040F20113C4E909354FF4D6
:10677000EB73C4F86080C4F858806766E76584F8F6
:106780007A5084F87C5084F87D5084F87F50C4E9B6
:106790001A66C4E90255C4E90456C4E906562562DE
:1067A000C4E90F55C4E9115563672046BDE8F0817F
:1067B000F0DC010090F87E3073B504460E4693B1CC
:1067C00000252E4B00938DF805508DF8045002AB38
:1067D00080F87E5013E906002948FFF70FFE29468E
:1067E00045200EF007F90021452006F007060EF0BF
:1067F00001F984F8276036212148FFF70CFE94F850
:106800002730072B0DD8DFE803F004242C2E30327C
:10681000343648211A48FFF70BFEA36D2366E36D5B
:1068200063660A200DF0FCFD94F87F305BB994F8A4
:106830007E3043B90121452084F87E100EF0DAF84D
:106840000F48FFF7E5FD4FF6FF73C4E91A3302B0B6
:1068500070BD28210A48FFF7EBFDE36D2366A36DA9
:10686000DEE78821D6E7E821F4E7C821D2E76821EE
:10687000F0E70821CEE7A821ECE700BF80F0FA029C
:106880006804002090F8803073B504464BB30125AE
:10689000CC480026FFF7A9FD2946452084F87F60F3
:1068A00084F87E500EF0A6F8294645200EF05EF8DA
:1068B000294646200EF09EF8294646200EF056F84E
:1068C00094F87F3084F880605BB994F87E305BB9CF
:1068D000452084F87E5029460EF08CF8B948FFF721
:1068E00097FD94F87E3093B10025B74B00938DF857
:1068F00005508DF8045002AB13E90600B14884F846
:106900007E50FFF77BFD294645200EF073F80021ED
:1069100045200EF06FF8012147200EF06BF805209E
:1069200005F041FC002147200EF064F8142005F02A
:106930003AFC012147200EF05DF894F87F305BB9F6
:1069400094F87E3043B90121452084F87E100EF082
:1069500051F89C48FFF75CFD962005F024FC94F864
:106960007E3093B10025984B00938DF805508DF83B
:10697000045002AB13E90600924884F87E50FFF7FA
:106980003DFD294645200EF035F8002145200EF04A
:1069900031F8EF218B48FFF73EFD03218948FFF7CF
:1069A00047FD80218748FFF743FD02218548FFF717
:1069B0003FFDCF218348FFF72EFD00218148FFF7DF
:1069C00037FDC1217F48FFF733FD30217D48FFF7B8
:1069D0002FFDED217B48FFF71EFD64217948FFF76D
:1069E00027FD03217748FFF723FD12217548FFF7A4
:1069F0001FFD81217348FFF71BFDE8217148FFF758
:106A00000AFD85216F48FFF713FD00216D48FFF750
:106A10000FFD78216B48FFF70BFDCB216948FFF78D
:106A2000FAFC39216748FFF703FD2C216548FFF781
:106A3000FFFC00216348FFF7FBFC34216148FFF7AE
:106A4000F7FC02215F48FFF7F3FCF7215D48FFF7F1
:106A5000E2FC20215B48FFF7EBFCEA215948FFF7F5
:106A6000DAFC00215748FFF7E3FC00215548FFF707
:106A7000DFFCC0215348FFF7CEFC23215148FFF72C
:106A8000D7FCC1214F48FFF7C6FC10214D48FFF746
:106A9000CFFCC5214B48FFF7BEFC3E214948FFF71C
:106AA000C7FC28214748FFF7C3FCC7214548FFF72B
:106AB000B2FC86214348FFF7BBFC36214148FFF773
:106AC000AAFC48213F48FFF7B3FC3A213D48FFF7B5
:106AD000A2FC55213B48FFF7ABFCB1213948FFF739
:106AE0009AFC00213748FFF7A3FC13213548FFF734
:106AF0009FFCB6213348FFF78EFC08213148FFF791
:106B000097FC82212F48FFF793FC27212D48FFF7A0
:106B10008FFCF2212B48FFF77EFC00212948FFF76C
:106B200087FC26212748FFF776FC01212548FFF73F
:106B30007FFCE0212348FFF76EFC0F212148FFF77F
:106B400077FC31211F48FFF773FC2B211D48FFF70D
:106B50006FFC0C211B48FFF76BFC0E211948FFF757
:106B600067FC08211748FFF763FC4E211548FFF723
:106B70005FFCF1211348FFF75BFC37211148FFF759
:106B800057FC07210F48FFF753FC10210D48FFF772
:106B90004FFC03210B48FFF74BFC0E210948FFF780
:106BA00047FC09210748FFF743FC00210548FFF790
:106BB0003FFCE1210348FFF72EFC00210148FFF7CD
:106BC00037FC03E06804002080F0FA020E214548FB
:106BD000FFF72EFC14214348FFF72AFC032141480C
:106BE000FFF726FC11213F48FFF722FC07213D4813
:106BF000FFF71EFC31213B48FFF71AFCC121394841
:106C0000FFF716FC48213748FFF712FC08213548EA
:106C1000FFF70EFC0F213348FFF70AFC0C21314827
:106C2000FFF706FC31212F48FFF702FC36212D48E3
:106C3000FFF7FEFB0F212B48FFF7FAFB1121294834
:106C4000FFF7E9FB94F87F305BB994F87E3043B9E5
:106C50000121452084F87E100DF0CCFE2148FFF77D
:106C6000D7FB782005F09FFA94F87E3093B1002589
:106C70001D4B00938DF805508DF8045002AB13E9BD
:106C80000600184884F87E50FFF7B8FB29464520D7
:106C90000DF0B0FE002145200DF0ACFE2921114879
:106CA000FFF7B9FB94F87F305BB994F87E3043B9B5
:106CB0000121452084F87E100DF09CFE0948FFF765
:106CC000A7FB94F827102046FFF774FD0121482008
:106CD0000DF04CFE0121482002B0BDE870400DF0DF
:106CE00089BE00BF6804002080F0FA02FFF7CABD29
:106CF00080F87D10704700002DE9F04F85B01D46EB
:106D00005B0002936B105B42019301230E9E80F89F
:106D10007F3003680092044688461F69691833462D
:106D2000B8472368009A1F69A8EB0501334620463F
:106D3000B8472368009A1F69521B334641462046D4
:106D4000B8472368009A1F69AA183346414620466F
:106D5000B8470027BD4266DD019B002B07DB029B85
:106D6000023B0293DDE901329B1A0193013D019B35
:106D700003EB470303330137019308EB0703039346
:106D8000009B039905EB030923684A46D3F810A03A
:106D900020463346D0472368A8EB070AD3F810B043
:106DA0004A46334651462046D847009BA3EB050987
:106DB00023684A46D3F810B0514633462046D84798
:106DC00023680399D3F810A04A4633462046D0479B
:106DD000009B07EB030B236805EB0801D3F8109029
:106DE000039133465A462046C8472368A8EB050955
:106DF000D3F810A05A46334649462046D047009B58
:106E0000A3EB070A23685246D3F810B0494633462D
:106E10002046D84723680399D3F81090524633464A
:106E20002046C84796E7002384F87F3094F87E30E8
:106E30005BB9012184F87E1045200DF0DBFD04488C
:106E400005B0BDE8F04FFFF7E3BA05B0BDE8F08F3D
:106E5000680400202DE9F04F85B01D469DF838A04C
:106E6000C3F101096FF001036B4301930AF00403BE
:106E700002930AF0020304460F469046002603934D
:106E8000B5425FDDB9F1000F04DB019B0233013D28
:106E9000019399440136029B09EB460909F1010966
:106EA0008BB1236805EB0802D3F810B00F9BB9191A
:106EB0002046D847236808EB0602D3F810B00F9B92
:106EC000E9192046D847039B8BB12368A8EB05023C
:106ED000D3F810B00F9BB9192046D8472368A8EB08
:106EE0000602D3F810B00F9BE9192046D8471AF0D4
:106EF000080F11D0236808EB0602D3F810B00F9BDF
:106F0000791B2046D847236805EB0802D3F810B058
:106F10000F9BB91B2046D8471AF0010FB0D0236849
:106F2000A8EB0602D3F810B00F9B791B2046D84778
:106F30002368A8EB0502D3F810B00F9BB91B2046BD
:106F4000D8479DE705B0BDE8F08F00002DE9F04F70
:106F500087B01D466F10109B03937B4204910293F0
:106F60000399012380F87F300368009104991E6A19
:106F70004FEA450808F10103491B04469346B04710
:106F80000026B5424ADD029B002BA2BFA8F10208F1
:106F9000A3EB08030293029A4FEA460303F10303AB
:106FA00005931A44049B0292A8BF05F1FF35A3EB99
:106FB0000509039A236800921B6A4FEA450A0136C5
:106FC0000AF1010A1F460BEB0602534649462046CA
:106FD000B847039A236800921B6AABEB06021F4670
:106FE000494653462046B847049B039A0092A3EBB8
:106FF0000609236805EB0B02D3F820A0059B494640
:107000002046D0472368039A0092D3F820A0059B1E
:10701000ABEB050249462046D047B2E7002384F88F
:107020007F3094F87E305BB9012184F87E104520D2
:107030000DF0E0FC044807B0BDE8F04FFFF7E8B9F9
:1070400007B0BDE8F08F00BF680400202DE9F04FC5
:1070500089B01C469DF84830059363421B1B03937F
:10706000139B01330493059B03F001030793049BD7
:107070000693054688469146C4F101070026B442AE
:1070800048DD002F04DB039B0233013C03931F44C4
:1070900001364FEA460A0AF101031F44079BD3B1A8
:1070A0002B68149A0092D3F820B0049B09EB0602D7
:1070B00003EB4403A8EB04012846D8472B68149A35
:1070C0000092D3F820B0069B04EB09025344A8EBCE
:1070D00006012846D847059B9B07D0D52B68149AF4
:1070E0000092D3F820B0049BA9EB060203EB440303
:1070F000A8EB04012846D8472B68149A0092D3F8CD
:1071000020B0069BA9EB04025344A8EB06012846D5
:10711000D847B4E709B0BDE8F08F00002DE9F04F83
:1071200087B0DDE911670493109B05934FF00103CD
:1071300080F87F30049BA3EB46050368009701EBC2
:10714000060A8B46D3F8208051462B4604469146CA
:10715000C047059B00974B440393039A2368013A69
:10716000D3F8208051462B462046C047059B009708
:1071700006EB0908A3EB460923684246DD69594638
:107180004B462046A847049B00970BEB030523685A
:107190004246691ED3F81CB020464B46D84701230F
:1071A000424600935146334620460197AD1BFFF7F8
:1071B00051FE013D022342460093294633462046B4
:1071C0000197FFF747FE039B0197A3EB060808F121
:1071D000FF38042300934246334629462046FFF7F2
:1071E00039FE082300930197334642465146204614
:1071F000FFF730FE002384F87F3094F87E306BB9BF
:107200004FF0010384F87E30012145200DF0F2FBA0
:10721000044807B0BDE8F04FFFF7FAB807B0BDE883
:10722000F08F00BF680400202DE9F04F87B01746AB
:10723000109A0492DDE9115A049E026805934FF0FA
:107240000108A6EB450680F87F8007EB050BCDF81B
:1072500004A00096566A5A4604468946B047059BE4
:10726000CDF80080A3EB4506049B1F44A944013ED2
:107270007A1B2B46013A49462046CDE9016AFFF7C1
:10728000E5FE02230093CDE9016A2B465A464946A2
:107290002046FFF7DBFE002384F87F3094F87E3031
:1072A0005BB984F87E80414645200DF0A3FB04487D
:1072B00007B0BDE8F04FFFF7ABB807B0BDE8F08FFF
:1072C00068040020C0E90511704780F87B1080F841
:1072D0007C20704780F8261070470000012990F844
:1072E000253007D1D0F8882022B1107B10FB03F0A5
:1072F00000B27047024A0C2000FB0121087AF5E732
:107300007CDC01002DE9F0412B4C069F98464FF69E
:10731000FF73C0E91A330E464620002115460DF0D2
:1073200069FB20462A21FFF776F848EA0646012144
:1073300046200DF05FFB310E2046FFF759F8C6F3EB
:1073400007412046FFF754F8C6F307212046FFF710
:107350004FF85FFA88F12046FFF74AF800214620EF
:107360000DF048FB20462B21FFF755F847EA05456D
:10737000012146200DF03EFB290E2046FFF738F88C
:10738000C5F307412046FFF733F8C5F30721204630
:10739000FFF72EF8F9B22046FFF72AF80021462021
:1073A0000DF028FB20462C21FFF735F8012146205F
:1073B000BDE8F0410DF01EBB680400202DE9F04F40
:1073C00093B01D461C9B04931D9B0693036E039173
:1073D0008B42834614469DF8789040F38281436E39
:1073E000A34240F37E81062313FB0913002B40F3D5
:1073F000788104EBC903002B40F373811F2D40F209
:107400007081D0F88880B8F1000F40F0C380B9F1E6
:10741000010F4FEA85066BD1049B069A934267D011
:1074200090F87E3010AF83B1AF4B10938DF845804C
:107430008DF8448080F87E8097E80600AB48FEF720
:10744000DDFF414645200DF0D5FA002145200DF025
:10745000D1FA04F108030093039B039905332246F4
:107460005846FFF74FFFA24A354400231544EA5C13
:10747000FA540133052BFAD100239C4DBDF810605E
:107480008DF845300824BDF818804FF0000A17F831
:107490000A3019EA030F14BF3146414628460AF163
:1074A000010AFEF7A8FFBAF1050FF0D14FEA490330
:1074B00041462846013C5FFA83F9FEF79CFF14F031
:1074C000FF04E0D19BF87F30002B40F00A819BF84D
:1074D0007E30002B40F0058101218BF87E10452085
:1074E0000DF088FA814813B0BDE8F04FFEF790BF69
:1074F00001238BF87F307E4BDDF80C8035442B4424
:1075000000260793052E16BF079B00239B5D05935E
:10751000B9F1010F1DD1039B002703EB060A059B60
:10752000DA0708D5DBF800301B69E2191D46514621
:10753000049B5846A847059B01375B08082F059315
:10754000EDD10136062EC844DCD100238BF87F3004
:10755000BDE7A2460827059BDB0714D5DBF8003002
:10756000049ACDE900925B6A52461D4641464B465D
:107570005846A847059B013F5B0817F0FF07059396
:10758000CA44E8D1DDE7049B069A9342F2D0DBF8C7
:107590000030E6E7B8F808309D42C0F0A280B8F8A5
:1075A0000A20AA42C0F09D800122ED1A80F87F20B7
:1075B0000C23D8F80420D8F800100C91ADB25D432C
:1075C000AB18AA5A06925A790D9293F907200592A0
:1075D000B9F1010F93F9082093F804A085BFBDF914
:1075E00014300793002313B298BF079313FB09438A
:1075F00000250E9313192E46A84608950B930D9A55
:10760000F3B293426AD20E9B0B9AEB1800243244D9
:1076100009930F922346E2B292453AD9B8F1000F8E
:1076200008D106990C9A525C08920A4601320692D9
:107630004FF08008089A12EA08020A9205D0013336
:107640009BB24FEA58080134E5E7002BF9D0B9F1B5
:10765000010FDBF800200CD1039805990144049830
:1076600000902144176A0F9AC91A5846B8470A9BD6
:10767000E7E704980799CDE9009021440398576AF9
:10768000099AC91A09FB010103FB09F35846B847D7
:10769000EDE783B1B9F1010FDBF800200ED10398BB
:1076A0000599014404980090146A0B9A514432449D
:1076B000C91A5846A04701364D44A0E704980799D7
:1076C000CDE9009051440398546A099AC91A09FBFC
:1076D000010103FB09F35846A047ECE74FF0000314
:1076E00034E713B0BDE8F08F80F0FA0268040020A0
:1076F0007DD701000B0604D4002380F82C3089B21A
:107700000EE090F82C30ABB901F0E002C02A09D1AC
:107710008A0102F4F862C285012280F82C2000213F
:107720000846704701F0F002E02AE8D10A03C2855A
:107730000222F2E7022BB0F92E2008D1890101F4D0
:107740007C631343C385012380F82C30E7E701F005
:107750003F01114389B20023C18580F82C30DFE757
:10776000F8B5931E062B064613D8274B0C2000FBBA
:107770000232013953680025203B11F8012FAAB1CC
:10778000A2F120005F2894BF9A5C93F82020154452
:10779000F3E7D0F8883093B96FF005034B43062028
:1077A00001FB003511F8012B002AF9D196F82500CC
:1077B000002310FB05F086F87A3000B2F8BD0C46C5
:1077C00000250C2714F8011B0029EFD03046FFF7E5
:1077D00091FFD6F8882013898342F3D851898142DA
:1077E000F0D3C31A506822789BB207FB030312B987
:1077F00096F87A2012B19B791D44E3E793F90720AC
:107800001B791344F8E700BF7CDC0100B0B51546D6
:107810008A68023212B2D31D23F0070300AFADEB2A
:10782000030D04460023084669460CF05EFD2A4617
:1078300069462046FFF794FFBD46B0BDF0B50D295F
:1078400085B004460D4608D090F8823043B989B21D
:1078500019B10A2908D01F2907D8012005B0F0BDA9
:10786000FFF748FF0146F3E72021D4F88830002BCA
:1078700051D194F82400022815D17F29EDD84C4B22
:107880000B4413F8202C063202F4FC72102394F8F7
:107890002570E6680A2D07FB03F31BD13344E36030
:1078A0000023A360D9E7C21E052A0DD87F29D4D8AA
:1078B000404E0C2303FB006203FB006352681B7AFB
:1078C0000A4412F8202CE2E7012812BF1A460823C6
:1078D0000622DCE794F87B504DB1A56807FB025205
:1078E000256EAA42C1BF9B19E3600023A36094F8F0
:1078F0007C302BB1E368626E9A42DCBF0023E36008
:10790000236800909D6A2046D4E90223A847A36813
:107910001844A060A1E70A2D09D10022A2601B7BB8
:10792000E26894F8251001FB0323E36095E75A8988
:107930008A4292D31D89A9428FD34D1B5A68ADB29A
:107940000C2000FB05252E795EB36A794AB394F8C2
:107950007B2094F825007AB195F907203244A66877
:1079600000FB0262266EB24206DD0026A660E268D7
:107970001B7B03FB0023E36094F87C302BB1E368AE
:10798000626E9A42DCBF0023E360A2692368019221
:107990006269029000925E6920460B46D4E90212A9
:1079A000B047A97994F82530A26801FB032378E752
:1079B000A8E401007CDC0100F0B515886E1CB6B2AD
:1079C00016804C5D2706A0B20ED504F0E007C02F4C
:1079D0000BD1012B09D902351580885DA40100F077
:1079E0003F0004F4F8642043F0BD04F0F007E02FFA
:1079F000FAD1022BF8D9AB1C9BB213800335885DFA
:107A00001580CB5C800103F03F0300F47C6043EA07
:107A10000434204380B2E7E72DE9F04F8BB01F46D6
:107A20009DF8503002921A46044603930591FFF7E1
:107A300097FE039A94F8253094F826B0012A1FFA8D
:107A400080F940F07F81D4F888209BB2002A39D198
:107A5000039D04924FEAC3089246BBF1000F48D140
:107A60002369002B61D105980FF0DBFD049B002BEF
:107A700000F00C81D4E905239A4200F0078194F8C4
:107A8000788094F879300DF1280B434494F82580E0
:107A90001FFA80FA002018FB03F82BF8020D1FFADA
:107AA00088F8BDF82630534580F09680002840F0D5
:107AB0009380AAEB03039BB25A4605992046FFF731
:107AC0007BFFEEE7ABF10602022A94F8788098BFBC
:107AD00094F8792008FB03F847445FFA88FA98BFC6
:107AE00002FB0388039B98BF1FFA88F8652504935F
:107AF000B3E70BF1FF3BBBF10A0F16D8DFE80BF041
:107B0000060D133C434A4D545B5E6500029BA3EB9C
:107B1000590302930135EDB207E0029BA3EB090381
:107B200002930235F7E7A7EB5807029B23EAE373BA
:107B3000029309EB030B236820465B6B9847834550
:107B400006DD236820465B6B9847A0EB0903029390
:107B500027EAE77708EB0703A3EB0A0A2368204626
:107B60001B6B984782457FF77EAF236820461B6BCF
:107B70009847A0EB080776E7029BA3EB5903029313
:107B8000A7EB5807C6E7029BA3EB09030293A7EBF9
:107B90005807C6E7A7EB0807C7E7029BA3EB590303
:107BA0000293A7EB0807B5E7029BA3EB0903029337
:107BB000A7EB0807B5E7A7EB0A07B6E7029BA3EB1D
:107BC00059030293A7EB0A07A4E7029BA3EB09035F
:107BD0000293A7EB0A07A4E7D4F8883019898142F9
:107BE00051D85A8982424ED35B6894F82520401AB6
:107BF00080B20C2101FB003094F8781090F807A0B7
:107C0000A06923681AFB02FA4FFA8AFABAF1000F48
:107C1000CDE90080D8BFA9EB0A0901FB12720299D5
:107C2000D3F824B0D4BF1FFA89F94FF0000A4B46AD
:107C300051442046D847643DEDB205980FF0F1FC61
:107C400083B207930AAB002023F8020D8346069304
:107C5000BDF82630079A93421BD2D31A9BB2DDE9B6
:107C600005122046FFF7A8FE039A236800929B6A3C
:107C7000029A1E465A4401463B462046B04783447A
:107C80000FFA8BFBE4E74FF0000AD4E74FF0000A4D
:107C9000D3E723694B4525DDD4E90512914221D074
:107CA000029904984944514409B260B1029894F889
:107CB00078C05044029094F825000CFB107702988D
:107CC00058440FFA80FB022D10D0032D2BD0012D2C
:107CD00008D1CDE900822068456AA3EB09033A4642
:107CE0002046A84758460BB0BDE8F08FCDE900828A
:107CF0002068A3EB0903456A5B103A462046A84773
:107D00002369029AA069A3EB09035B1019B291429F
:107D1000CDE900802268C8BFBDF908100298556AF5
:107D2000411A3A46DCE78B42B8BF19B2029BCDE953
:107D300000824B441E4623683A465D6AA1EB090364
:107D4000711ACDE7039809490C2202FB0012014683
:107D500092F809A020461AFB03F35FFA83FAFFF7B3
:107D6000BDFA01251FFA80F80023C0E67CDC010083
:107D70002DE9F04182B015468A68023212B21E46E1
:107D8000D31D23F0070302AFADEB030D0DF108087F
:107D900004460023084641460CF0A7FA3B7E0093B8
:107DA0002A46334641462046FFF736FEBD46BDE82B
:107DB000F081000038B501F00703013B05460C4691
:107DC000062B0BD8DFE803F00411181F262D340012
:107DD00021F0070429461A48FEF70DFB7CB329461B
:107DE0001748083CFEF707FB24E021F0070429466A
:107DF0001348FEF700FBEDE721F007042946104881
:107E0000FEF7F9FAF3E721F0070429460C48FEF7DC
:107E1000F2FAF3E721F0070429460948FEF7EBFAE6
:107E2000F3E721F0070429460548FEF7E4FAF3E7F3
:107E300021F0070429460248FEF7DDFAF3E738BDD2
:107E4000680400202DE9F04385B0B1F10008044634
:107E500015461E46DDF8309049DB036E434546DD8E
:107E6000436E9A4243DA002ABCBFB6180025AA190D
:107E70009342B8BF5E1B002E39DD90F87E3093B17F
:107E800000271C4B02938DF80D708DF80C7004AB1D
:107E900080F87E7013E906001748FEF7AFFA3946FE
:107EA00045200CF0A7FD002145200CF0A3FDAB19E7
:107EB000013B00932A46434641462046FFF722FAFB
:107EC00031461FFA89F0FFF775FF94F87F3073B9D8
:107ED00094F87E305BB9012184F87E1045200CF0C7
:107EE00089FD054805B0BDE8F043FEF791BA05B03D
:107EF000BDE8F08380F0FA02680400202DE9F04329
:107F000085B0B2F1000804460D461E46DDF83090FB
:107F100049DB036E994246DA426E904543DA002906
:107F2000BCBF76180025AA199342B8BF5E1B002E6D
:107F300039DD90F87E3093B100271C4B02938DF809
:107F40000D708DF80C7004AB80F87E7013E906009C
:107F50001748FEF753FA394645200CF04BFD002137
:107F600045200CF047FDAB19013B4246294620460F
:107F7000CDF80080FFF7C6F931461FFA89F0FFF708
:107F800019FF94F87F3073B994F87E305BB9012102
:107F900084F87E1045200CF02DFD054805B0BDE8A5
:107FA000F043FEF735BA05B0BDE8F08380F0FA0281
:107FB000680400202DE9FF471646026E8A420446F7
:107FC0000D461F46DDE90C8A57DD436EB34254DD92
:107FD0000029BCBF7F180025E919002EBCBFB044A2
:107FE00000268A42B8BF571B06EB08029342B8BF6F
:107FF000A3EB0608002F40DDB8F1000F3DDD90F83F
:108000007E309BB14FF000091D4B02938DF80D900F
:108010008DF80C9004AB80F87E9013E906001948A7
:10802000FEF7ECF9494645200CF0E4FC0021452020
:108030000CF0E0FC06EB0802013AEB19013B009260
:10804000294632462046FFF75DF908FB07F11FFA83
:108050008AF0FFF7AFFE94F87F3073B994F87E3062
:108060005BB9012184F87E1045200CF0C3FC054863
:1080700004B0BDE8F047FEF7CBB904B0BDE8F08727
:1080800080F0FA02680400202DE9F04F8DB01D4603
:10809000044693469DF858300E4619B900200DB09D
:1080A000BDE8F08F012B28D190F8252003680292BB
:1080B00082690192426900925F692A460B465946DD
:1080C000B847D4F888202AB994F8250000EB40007E
:1080D0004000E4E713899E42E0D35189B142DDD3E9
:1080E000F61A5368B6B20C2202FB063694F8253015
:1080F000B07910FB03F000B2D1E79A1EA1F120067F
:10810000062AB6B201D85F2EC8D8022B40F0A5804F
:108110009B4BB4F9602013F806A094F825301AFBA5
:1081200003F000EB0B019142E5DA964A52F8262063
:1081300005920AF10602D2100492D4E90512914286
:1081400002D0012B00F0B081012384F87F3010238E
:108150000693D4E9053293420BD094F82530216878
:10816000CDE9003220464E6A0AFB03F32A465946FF
:10817000B0474FF00008049A94F82530424500F0CB
:108180008481059A12F80870002F63D0012B4FEA02
:10819000C8067AB240F0FE80002A06EB0B0106DA30
:1081A00023682A46D3F8109063692046C8477B06A7
:1081B00009D523680BF10101D3F8109063692A46B1
:1081C00031442046C847B80609D523680BF102019F
:1081D000D3F8109063692A4631442046C847F9060F
:1081E00009D523680BF10301D3F8109063692A467F
:1081F00031442046C8473A0709D523680BF10401EA
:10820000D3F8109063692A4631442046C8477B075B
:1082100009D523680BF10501D3F8109063692A464C
:1082200031442046C847B80709D523680BF1060139
:10823000D3F8109063692A4631442046C847F907AD
:1082400008D523680BF107011F6963692A46314489
:108250002046B84708F101088DE7DA1E052A00F22A
:10826000CB8103EB43024849920088580A4450F8F6
:108270002690526812F806A00C2202FB03131E7A05
:1082800094F87E3093B10027404B0A938DF82D70FF
:108290008DF82C700CAB13E906003D4884F87E7015
:1082A000FEF7ACF8394645200CF0A4FB0021452030
:1082B0000CF0A0FB012384F87F3006FB0AF3049343
:1082C00094F82530012BD4E9051202D1914240F0F7
:1082D0006D8191420AD05E432168019200964E6AF8
:1082E0000AFB03F32A4659462046B04794F8256016
:1082F00016FB06F3DBB2013E0893F3B205930026AA
:10830000049BB34240F3768119F8013B190640F112
:10831000498196FBFAF803F07F0301330793059B2D
:108320000AFB1867002B00F02B8194F8253007FB1F
:1083300003B708FB0358079B0693069B013BDBB280
:10834000FF2B069300F01981059B43440093059B86
:1083500042463B4439462046FEF7D4FF059B002B9E
:1083600000F01181089B013BDBB2FF2B099300F069
:108370000E81A18A0648FEF73EF8099BF3E700BF8D
:10838000A8E4010028DD01007CDC010080F0FA0295
:1083900068040020002A06FB03B609DA6169226836
:1083A000CDE900312046D2F8249031462A46C8470C
:1083B0007A060BD594F8253061692268CDE9003141
:1083C0002046D2F82490F1182A46C847BB060CD59F
:1083D00094F8253061692268CDE900312046D2F851
:1083E000249006EB43012A46C847F8060DD594F8B9
:1083F000253061692268CDE900310321D2F824904B
:1084000001FB03612A462046C84739070CD594F87A
:10841000253061692268CDE900312046D2F82490E8
:1084200006EB83012A46C8477A070DD594F8253014
:1084300061692268CDE900310521D2F8249001FB61
:1084400003612A462046C847BB070DD594F825305E
:1084500061692268CDE900310621D2F8249001FB40
:1084600003612A462046C847F8077FF5F3AE94F823
:10847000253061692268CDE900310721576A01FB87
:1084800003612A462046B847E4E61D44DDE904239B
:1084900013440593069B013B06937FF45AAE9DF867
:1084A000183084F87F3057E094F87E3093B100267E
:1084B000544B0A938DF82D608DF82C600CAB13E9AA
:1084C0000600514884F87E60FDF798FF314645204C
:1084D0000CF090FA002145200CF08CFA05F10F0207
:1084E0000BEB0A030092013B2A4659462046FEF751
:1084F00009FF0026DFF8108155463746049BBB4232
:108500001FDD059A06FB0323A5F1080BDB5D06932F
:108510004FF080099DB1069B13EA090F14BFA18A91
:10852000218B4046013DFDF766FFAB454FEA5909F7
:10853000F0D101375D46E1E755460027DEE7AB465F
:10854000F7E71DB1218B4046FDF755FF01360F2E91
:10855000F2DD94F87F305BB994F87E3043B90121A5
:10856000452084F87E100CF045FA2748FDF750FFAF
:1085700094F8250010FB0AF0BDE5079B1E44BFE6FA
:108580005F44A844D7E6A18A1F48FDF734FF94F85A
:1085900025301F440AFB03B29742FFF6CEAE984443
:1085A0005F46CAE6013356FA83F6A9E62E440BEB82
:1085B0000A03013E0096013B2A4659462046FEF733
:1085C000A1FE049B002B15DD99F800100A060AD5C0
:1085D00001F07F0101315B1AA08A0493FFF7EAFBE7
:1085E00009F10109EDE7049B208B0131C9B25B1A47
:1085F0000493F3E7002354E74FF000094E46CA46C0
:108600003EE600BF80F0FA026804002010B5064C78
:1086100006492046FDF7E6FE2046054A0549BDE825
:1086200010400CF027BB00BF680400203805002074
:1086300000000020E9630000F8B5044610300D4644
:1086400017461E4600F03EF904F1240000F03AF906
:108650000020C4E90E0084F8400060722DB90A4B76
:108660000A4A0B4822210DF07FFD9DF818306371F6
:108670009DF81C30E3719DF8203025602771A671AC
:1086800023722046F8BD00BF88E60100F5E6010030
:1086900099E60100437A23B98372C372C360012350
:1086A000437270471FB5044604AB006803E9060037
:1086B0000AF05EF89DF80D30227AE1790093206887
:1086C00000230AF07BF92068029A9DF80C100AF04A
:1086D00072F8206804B0BDE810400AF03FB800000E
:1086E00070B50546FFF7D6FF0F4E0079182404FB3E
:1086F000006393F908100CF0A7F9A87904FB006354
:1087000093F908100CF0A0F9687904FB006494F95F
:1087100008100CF099F9054B284693E80600BDE8CF
:108720007040FFF7BFBF00BF28F801007C050020A4
:1087300017B4837A6C4684E8060043B19A070DD5D6
:10874000EFF31083B3FA83F35B09C37272B694E854
:10875000060003B05DF8044BFFF7A4BFDB0742BF80
:10876000014B8289DA60F2E700280040837A53B136
:108770009A0703D5C37A33B162B67047DB0742BFAD
:10878000014B82891A61704700280040006809F097
:10879000FFBFF8B5064600680C460D4609F0F3FF2A
:1087A00001284FEA1427E4B20DD121463046FFF7E5
:1087B000EDFF394660F307053046FFF7E7FF60F34A
:1087C0000F25A8B2F8BD39463046FFF7DFFF214636
:1087D00060F30F253046FFF7D9FF60F30705F0E798
:1087E00030B5194B194A1A6085B000255D711D71AD
:1087F000022430230093CDE9015431232F22144960
:108800001448FFF719FF55230093CDE9015456236F
:10881000542211491148FFF70FFF3E230093CDE981
:1088200001543F233D220E490E48FFF705FF432325
:108830000093CDE90144442342220B490B48FFF742
:10884000FBFE05B030BD00BF7C05002000093D00E7
:10885000E01E00206C040020A41E0020B0040020B4
:10886000EC1E0020F4040020F81E00203805002033
:10887000084B186840B9EFF31082074942B972B645
:10888000BFF35F8F01220A701A6801321A607047C5
:108890000870F9E78805002084050020074B1A6856
:1088A00052B11A68013A1A601B682BB9044B1B7845
:1088B00013B1BFF35F8F62B6704700BF8805002019
:1088C00084050020FF220270032100224270827082
:1088D000C270027141718260C26002617047000023
:1088E00010B4184B03EB011191F84E10C9B211F0FE
:1088F00001040CD0017803EB0113012183F84E1021
:10890000042343708368D3B15DF8044B184711F01A
:10891000020F08D0017803EB0113022183F84E10F7
:10892000C3684470EFE7490709D5017803EB0113E9
:10893000042183F84E10072343700369E3E75DF8D1
:10894000044B704700A0004108B5FFF791FF074BAB
:10895000198C074B01F01F0153F8210008B1FFF7F4
:10896000BFFFBDE80840FFF799BF00BF00A000416E
:108970008C05002010B5034B0360044601F0DCF9C0
:10898000204610BD54E7010010B50446FFF7F2FF82
:1089900020464FF48A710CF072F9204610BD000099
:1089A00070B5B0B019AC054642F60211204603F08E
:1089B00029FA02261123CDE915361CA910234D22D0
:1089C000684614930DF0C3FC94E80E00284601F0AD
:1089D0001DFA064B2B602846002332462146ADF88F
:1089E000643001F069FA284630B070BD54E70100E8
:1089F00008B501F06DFA007800F0010008BD08B577
:108A000001F066FA0078C0F3400008BD0A68026011
:108A10008A8882807047000070B50D4688B0044691
:108A200012200DF00FFC6A792B7804922A790392B8
:108A3000EA780292AA7801926A7800921221154A85
:108A400006460EF045FD04F108032360FEB13046F2
:108A50000EF0E7FD0F2806EB0005079007D900226E
:108A600007A920460CF0E0FA079B2060A3602A4685
:108A7000314620680CF02CFB079B226863600021C4
:108A80003046D1540DF0E6FB204608B070BD0248D8
:108A90000CF0BBFA5CE701007AE7010073B5531AEA
:108AA0000F2B04460D461646019306D9002201A954
:108AB0000CF0BAFA019B2060A36032462946206878
:108AC0000CF006FB019B226863600021D15402B0C8
:108AD00070BDF8B5054617460E1A0024B44207EBE0
:108AE000040006D018B1592229190DF030FC593470
:108AF000F4E7F8BDF8B500250446C0E90255056164
:108B000024491630FFF782FF29461F2204F11C007A
:108B10000DF041FC04F1500384F83B5084F84550BB
:108B2000C4E9123584F8505084F86050A4F86250BB
:108B3000A4F8645029461B2204F166000DF02BFCBA
:108B400004F1480684F8815004F2F12704F182050B
:108B50002846593503F006F9AF42F9D1002584F8CB
:108B6000F15284F84450A4F86250C4F8F4520A490F
:108B700030460CF0E6FB094BE36384F86050256453
:108B80002570E57025716571A5716570A570204629
:108B9000F8BD00BFA4E701002FAB0100F1D8FFFF33
:108BA00082B06B4683E806009B88C0F816104383AA
:108BB00002B070470123C16343717047016470477D
:108BC00080F8F8127047000030B51F2287B00446C5
:108BD00000211C300DF0DFFB0F4A002502AB1146CF
:108BE000684684F83B50E563A4F844500093FFF7CF
:108BF00055FF694604F148000CF0F5FA68460CF0A0
:108C00002DFA84F86050A4F86250A4F8645084F8F7
:108C1000815007B030BD00BF2FAB01002DE9F843F4
:108C2000D0E90064A31B1B4C5C4314BF2346012303
:108C3000E41805460F469046A1EB0606164B22D2D5
:108C40009C4220D804BBA14619EB060003D0592250
:108C500041460DF07CFB4A4639462868FFF739FF4C
:108C6000696800F159023846FFF733FF0646286865
:108C700008B10BF057FC592303FB0494C5E9009697
:108C8000AC60BDE8F8831C46592060430BF046FCFD
:108C90008146D9E7E9473FFA0B5CE00238B5D0E9F5
:108CA0000135AB4204460A4608D01BB1592218468A
:108CB0000DF04DFB63685933636038BD1946FFF70B
:108CC000ADFFFAE72DE9F04FD1F800800446E9B096
:108CD000FFF77AFF98F80730237598F80630637528
:108CE000414602A8FFF792FE0298BDF80C30C4F886
:108CF0001600638398F90830E36308F10A0A98F8CC
:108D00000920514604F11C000DF021FB98F80930B0
:108D100084F83B30002704AD98F80930BB4240F29C
:108D2000FA8007F1010947445FFA89F997F80AB018
:108D3000BBF1010F09EB0B0741D91F2F3FDC09F1F4
:108D400001010BF1FF36C1443246514428460DF073
:108D5000FEFA99F80A30072B0FD8062B80F0958081
:108D6000032B60D8022B2CD2012B24D00023DAB2A3
:108D7000964203F10103FADC21E00A2B00F0BF80E8
:108D8000C0F0A780192B00F0BF80FF2BEED16A78CE
:108D90002B78ABF1030B43EA02235FFA8BFBA4F8B9
:108DA00064305A460DF1120104F166000DF0CFFA5D
:108DB00084F881B003E099F80B3084F84430FFB2B6
:108DC000AAE706F0FE0602364FF000094FF0590BF5
:108DD00005EB090309F10209B145F0D01946022259
:108DE0000CA8019302F0D8FF94F8F102421C0BFB8F
:108DF000004084F8F1220CA9592282300DF0A7FA24
:108E0000019B022219460CA802F0C6FF59220CA9A8
:108E100023A80DF09CFA23A904F10800FFF73EFFF8
:108E200001236370D4E706F0FC0604364FF0000916
:108E30004FF0590B05EB090309F10409B145BED008
:108E4000194604220CA8019302F0A6FF94F8F1023F
:108E5000421C0BFB004084F8F1220CA959228230FD
:108E60000DF075FA019B042219460CA802F094FF3C
:108E700059220CA93AA80DF06AFA3AA904F108009F
:108E8000FFF70CFF01236370D4E7102229460CA8DA
:108E900002F082FF94F8F1025926431C06FB0040C1
:108EA00084F8F13232460CA982300DF050FA1022CB
:108EB00029460CA802F070FF32460CA951A80DF00B
:108EC00046FA51A904F10800FFF7E8FE0123637098
:108ED00075E74FF00003AB5528460EAB0C930EF030
:108EE000A0FB29462A180CA8FFF7D8FD0CA904F10D
:108EF00048000CF078F90CA80CF0B0F85FE799F88E
:108F00000B3084F860305AE76A782B7843EA022302
:108F1000A4F8623053E769B0BDE8F08F90F84130B3
:108F2000C3F11F03934270B50EDB0C46631A9A42DD
:108F30000ADD90F8413014F8016BC518013385F84B
:108F4000226080F84130F1E770BD000073B504463F
:108F500016460D4619B912B10D480CF056F8731BA0
:108F60000F2B019307D9002201A920460CF05CF8D1
:108F7000019B2060A3603246294620680CF0A8F8C7
:108F8000019B226863600021D15402B070BD00BF14
:108F90007AE7010070B50446002505704570294642
:108FA0001F2202300DF0F7F9294684F821501F22C4
:108FB00004F122000DF0EFF984F84150274904F143
:108FC00044000BF098F804F5317684F8545004F11D
:108FD00055052846593502F0C5FEAE42F9D1204B61
:108FE000C4F8D0320025072384F8DD322946C4F8BE
:108FF000C452C4F8C852C4F8CC52A4F8D45284F86D
:10900000D652C4F8D752A4F8DB5284F8DE521F229D
:1090100004F2DF200DF0BFF91922032384F8E022C7
:10902000C22284F8DF3284F8E12284F8E2321F227F
:10903000294604F540700DF0AEF940F21243A4F851
:10904000FE324FF48173A4F8003340F60563A4F8B0
:109050000233092384F80433204670BD2FAB01008E
:109060004001E0010020704770B404460D461646EA
:109070009BB990F82130C3F11F03934212DB0A46DB
:10908000531B9E420EDD94F8213012F8010BE118BB
:109090000133887084F82130F2E7012B02D170BCD3
:1090A000FFF73CBF70BC704784B030B587B0054651
:1090B0000BAC90F8540084E80E005922431C02FBCC
:1090C000005085F85430214655300DF040F92046C7
:1090D00002F008FF0288042A1DD0102A2CD0022A90
:1090E00012D10023ADF80630204640F20333ADF82C
:1090F000043002F0F7FE04224388ADF806300DEB91
:1091000002012846FFF70AFF95F8410007B0BDE8C5
:10911000304004B070470023CDF80630204640F2BE
:109120000553ADF8043002F0DDFED0F80230CDF882
:109130000630062201A9E4E700210DF106000DF03A
:109140002AF940F211732046ADF8043002F0CAFE4D
:109150000DF10603821C123052F8041B43F8041B65
:109160008242F9D11222E5E730B5B3B017AB05461C
:1091700015930C46D9B108460EF053FA2218214631
:1091800015A81BACFFF7E2FE15A9204602F0B0FEC1
:109190001EA94D2268460DF0DAF894E80E00284624
:1091A000FFF782FF15A80BF059FF33B030BD4FF029
:1091B000FF32E4E713B54FF481730446ADF8043091
:1091C0008DF806100023032201A9FFF74DFF94F844
:1091D000210002B010BD2DE9F04184B000AF05467A
:1091E000381D88460AF087FF391D05F144000AF052
:1091F000E9FF381D0AF03AFF95F84C4004F10903E5
:1092000003F4FC73ADEB030D621C09230DF10200A6
:109210008DF800208DF801306E46011903460022BA
:109220008B4202D003F8012BFAE7224641460DF0AB
:109230008EF8A21C28460023D2B23146FFF714FF55
:1092400095F821001037BD46BDE8F08138B590F89B
:1092500021500446811C2A4600F540700DF077F835
:1092600084F8FE5238BD000010B50378044653B9A7
:109270000521FFF79FFF2F4B20461968FFF7ABFF33
:109280002046FFF7E3FF04F2D522012140F26320DC
:1092900008F076F804F2D62201214FF4197008F094
:1092A0006FF804F2D722062140F2652008F068F832
:1092B00004F2DD22012140F2662008F061F804F298
:1092C000DE22012140F2672008F05AF804F53472DA
:1092D00002214FF41A7008F053F804F2D22202214E
:1092E00040F2692008F04CF823783BB904F540724D
:1092F00094F8FE1240F2612008F042F863783BB91E
:1093000004F2DF2294F8FF1240F2622008F038F8ED
:1093100004F53572012140F2232008F027F8064BAE
:109320001A781AB901221A7007F0ECFFBDE8104054
:1093300008F030B82C0600200D060020704770475A
:10934000704710B5042104460BF099FC204610BD6F
:1093500000F1080373B5044603600D46E1B1084609
:109360000EF05FF90F2805EB0006019007D90022E7
:1093700001A920460BF058FE019B2060A3603246F5
:10938000294620680BF0A4FE019B2268636000213F
:109390002046D15402B070BD01480BF036FE00BF2C
:1093A0007AE7010070B5AEB017AC054620460E4610
:1093B000903500F087FD1AA94D22684614960CF0EE
:1093C000C6FF94E80E00284600F0B9FE2EB070BD2E
:1093D00090F85E3021B143F0010380F85E307047B1
:1093E00023F00103F9E790F85E3021B143F0020366
:1093F00080F85E30704723F00203F9E790F85E30A2
:1094000021B143F0080380F85E30704723F0080371
:10941000F9E790F85E3021B143F0100380F85E3038
:10942000704723F01003F9E790F85E3021B143F064
:10943000200380F85E30704723F02003F9E790F8AE
:109440005E3021B143F0040380F85E30704723F0B2
:109450000403F9E784B02DE9F04186B007460DF129
:10946000340888E80E00414B47F8043B0446384670
:10947000249D02F077FC04F1680002F001FE002652
:1094800004F19403C4E92663C4E9283604F1AC036B
:10949000C4E92C63C4E92E3684F8946084F8AC6087
:1094A000C4F8C06032496846FFF752FF694604F1CC
:1094B000C40001F077FC68460BF0D0FD2D496846EA
:1094C000FFF746FF694604F5807001F06BFC6846C3
:1094D0000BF0C4FD28496846FFF73AFF694604F5DA
:1094E0009E7001F05FFC68460BF0B8FD41465922C2
:1094F00038460CF02CFFFF2315F0020284F85D3093
:109500001E4B63661ABF01232366226615F00C0FFB
:1095100018BF236E84F85E601CBF43F010032366FF
:1095200015F0300F1EBF236E43F480732366204670
:1095300005F00101FFF74CFF111C18BF0121FFF7D7
:1095400052FFC5F3C001FFF759FFC5F30011FFF744
:1095500060FFC5F34011FFF767FFC5F38001FFF718
:109560006EFF06B0BDE8F04104B07047E4E70100CB
:10957000BEE70100C8E70100D1E70100EC000020D0
:10958000F0B587B000F5807405460E4668460B4975
:109590001746FFF7DDFE6946204601F06AFC684683
:1095A0000BF05CFD3A46314605F1680002F0DAFD49
:1095B000204601F03FFC07B0F0BD00BFB4E701005A
:1095C00009B141667047014B43667047EC000020CB
:1095D00008B5592204310CF0BAFE08BDD0F88C0051
:1095E000704790F85D00704710B56831044602F08E
:1095F00071FD204610BD70B5051DA2B00446C0F82F
:109600008C10592229460BA80CF0A1FE0BA802F0E1
:1096100069FC06882946F6B259220BA88DF8246009
:109620000CF095FE0BA802F05DFC05AD3246811CE6
:1096300028460CF08CFE94F85E308DF82530D4F876
:109640008C00236E0A9302F074FA08AB064693E886
:1096500007008DE80700304695E80E0007F0D1FEC0
:1096600004F1900584F85D00284600F0EAFC30B172
:10967000214600F030FC284600F0F2FCF7E722B06B
:1096800070BD2DE9F047144690F85D2063889A423A
:109690000546884604D12378022B09D0032B4AD0F3
:1096A0002246414605F19000BDE8F04700F0E6BCD7
:1096B000406E036829469B689847D5F88C0002F0F5
:1096C00036FA0646D5F88C0002F031FA02F09AF824
:1096D0000146304602F0A4F805F16806013887B269
:1096E000304602F0F3FC8246304602F0EDFC814643
:1096F000304602F0EDFCAAEB0000B84210D2304632
:1097000002F0E6FCAAEB0000E080304602F0E0FC4C
:10971000C4F80890A0800021304602F0F1FCBFE7B9
:10972000E780304602F0D4FC09EB0003A080384407
:10973000A36081B2F0E700F16806E288A1683046D4
:1097400002F0B0FC304602F0F3FCA168E288284643
:10975000FFF716FF686E03682946DB6898479FE7A6
:1097600070B506460C466CB1E1683046FFF7F8FF6D
:1097700004F11400A5680BF071FC20460AF0D2FE3B
:109780002C46F0E770BD70B506460C464CB1E1685A
:109790003046FFF7F8FFA56820460AF0C3FE2C46C6
:1097A000F4E770BD104B10B50446036000F59E70E1
:1097B00001F030FB04F5807001F02CFB04F1C400D3
:1097C00001F028FBD4F8B01004F1A800FFF7DBFF8C
:1097D000D4F8981004F19000FFF7C2FF04F168007C
:1097E0000BF03CFC204610BDE4E7010010B5044638
:1097F000FFF7D8FF20464FF4BC710BF040FA20462B
:1098000010BD70B506460C464CB1E1683046FFF716
:10981000F8FFA56820460AF085FE2C46F4E770BDE7
:109820002DE9F04FCBB004460D461CAE42F60211B6
:1098300033A802F0E7FA592233A930460CF087FD2D
:1098400004F190074D221FA968460CF080FD96E8B0
:109850000E00384600F0CFFB6DB1B0B1FFF7C8F88D
:10986000034690B9606E0268556903222146A847F5
:109870004BB0BDE8F08F40B1FFF7C1F8034620B907
:10988000606E026855690222F0E7D4F88C00DFF8B8
:10989000189102F04CF90022014633A802F008F8B2
:1098A000369E0DF1D00A04F16807564542D039467C
:1098B00016A802F00FFC16A80BF0D0FB16A839462C
:1098C00002F008FC179B149316A80BF0C7FB5DB9B8
:1098D000494616A8FFF73CFD16A904F59E7001F055
:1098E000C8FA16A80BF0BAFBD4F88C0002F01CF9E9
:1098F00094F85D2015928346384602F0E5FB4FF060
:109900000008BDF8503000935FFA8BF10346CDF8A4
:109910000480159A404607F0ACFD834678B904F5FB
:109920009E7001F087FA606E036804225D6921462B
:109930005B46A847359933A8FFF763FF98E74DBB0F
:10994000494616A8FFF704FD4FF47A7216A904F5EC
:109950009E7001F015FA804616A80BF07FFB606E32
:10996000B8F1000F0BD103680622D3F814802B4600
:109970002146C04730460BF0DFF9064695E70268FE
:10998000D4F87031D2F8148013B92B462A46EFE789
:109990000722EDE7606E03680122D3F814B0214678
:1099A0004346D847E6E700BFABE7010070B5044681
:1099B000406E03680D461B6921469847D4F88C0019
:1099C00002F0B5F801F020FF034640B9606E02686E
:1099D00055692146AC460522BDE8704060472946DE
:1099E0002046BDE87040FFF71BBF0000024A034954
:1099F00003480BF03FB900BF000000203D9300007A
:109A0000EC00002082B02DE9F0418EB005460C46F6
:109A100001A814A981E80C0002F040F901A908A8E6
:109A200007942F1D0BF0BFFBAA68079E3C4601233D
:109A300052B113699E4234BF9168D168144634BF55
:109A4000012300230A46F3E763B1EB68A34205D084
:109A500020460BF099F903699E421DD9A74203D114
:109A6000012606E02046F6E723699E422CBF002629
:109A700001262C200AF052FD079B0361804608A9AD
:109A800014300BF090FB3B462246414630460BF02B
:109A90007DF96B6901336B6108A80BF0DFFA01A84F
:109AA0000BF0DCFA0EB0BDE8F04102B0704784B0B4
:109AB00070B5ACB031AC84E80E00C568061DAE428E
:109AC00019D0296915A8FFF783FD4D2234A96846EE
:109AD0000CF03DFC94E80E0015A802F0B4F928B192
