:10400000000003201D5001000B50010081CE000074
:104010000B50010087CE00008DCE00000000000094
:1040200000000000000000000000000071D300004C
:104030000B5001000000000021D400008D50010051
:104040000B5001000B5001000B5001000B50010000
:104050000B5001000B5001000B5001000B500100F0
:104060000B5001000B5001000B5001000B500100E0
:104070000B5001000B5001000B5001000B500100D0
:104080000B5001000B5001000B5001000B500100C0
:104090000B5001000B5001000B5001000B500100B0
:1040A0000B5001000B5001000B5001000B500100A0
:1040B0000B5001000B5001000B5001000596000051
:1040C0000596000005960000059600000596000084
:1040D0000B5001000B5001000B5001000B50010070
:1040E0000B5001000B5001000B5001000B50010060
:1040F000000000000B500100811D01008D1D01001A
:10410000911D0100951D01005D240100692401003D
:104110006D24010071240100752401008124010037
:1041200085240100892401000B5001000B5001007F
:104130000B5001000B5001000B5001000B5001000F
:104140000B5001000B5001000B5001000B500100FF
:104150000B5001000B5001000B5001000B500100EF
:104160000B5001000B5001000B5001000B500100DF
:104170000B5001000B500100000000000000000087
:104180000D5001009F500100A3500100A7500100F5
:10419000000000000B5001000B5001000B5001000B
:1041A0000B5001000B5001000B5001000B5001009F
:1041B0000B5001000B5001000B5001000B5001008F
:1041C0000B5001000B5001000B5001000B5001007F
:1041D0000B5001000B5001000B5001000B5001006F
:1041E0000B5001000B5001000B50010000000000BB
:1041F0000B5001000B5001000B5001000B5001004F
:104200000B5001000B5001000B5001000B5001003E
:104210000B5001000B5001000B5001000B5001002E
:104220000B5001000B5001000B5001000B5001001E
:104230000B5001000B5001000B5001000B5001000E
:104240000B5001000B5001000B5001000B500100FE
:104250000B5001000B5001000B5001000B500100EE
:104260000B50010010B5054C237833B9044B13B142
:104270000448AFF300800123237010BD80030020A9
:1042800000000000CC16020008B5034B1BB1034927
:104290000348AFF3008008BD000000008403002045
:1042A000CC16020070470846114613F027BF084697
:1042B00012F04ABE084612F03FBE10B50421044673
:1042C00011F06FFB204610BD10B5034B0360044690
:1042D00005F0AAFE204610BD1CB6010010B504462C
:1042E000FFF7F2FF2046042111F05BFB204610BDD2
:1042F00038B5064B4C1E002A18BF13460546194612
:10430000224614F020F800232B5538BD23B70100B6
:104310004FF6FF7399421FBF0368CA0903EBC2033C
:1043200001F07F011ABF586800EBC1000020704700
:104330000A680B46526801461846104738B50B7993
:10434000042B04460D460CD0052B13D0022B17D19D
:10435000084613F0DEFFC4E9005000232372204614
:1043600038BD0D6828460DB113F0D3FFC4E90050E5
:104370000123F3E70B68DA880833C0E90032ECE781
:104380000023C0E90033F3E7B2F5803FF8B50646F5
:104390000F461546046807D2236809329B682046F9
:1043A000984708B1C580F8BD236820465B68394648
:1043B0009847012333710020F5E738B5C5880446D6
:1043C00001F12C002946FFF7A3FFA580206008B16A
:1043D000C388E38038BD000038B50023836043689C
:1043E00004464BB905682868036828211B6898476C
:1043F00018B1034B4360606038BD01232B71FAE7AD
:1044000001001F008268F8B50D464168032A044682
:1044100001F108011AD808460023D7B2461AF6B2AD
:10442000BE4206D210F8016B002E08BF43F0010314
:10443000F4E75BB902202871D8B2B84203D2C85C55
:10444000E8540133F8E70023AB54F8BD00238B5444
:104450002068A2688368B3B1DE88B2420AD1002620
:10446000B24209D09F1911F806C03F7ABC4501D16C
:104470000136F5E71B68EEE79A8801329A8005223B
:104480002A712B60E1E76168FFF77EFF226891687F
:1044900001609060002203466260F0E738B50D4687
:1044A0004168044649B18268CB889A4205D15200DE
:1044B00001320068FFF768FF6060636823B1A2689B
:1044C0001344511CA1601D7238BD2DE9F0470379DA
:1044D000DA0705460C4610D500688B68002263B1E8
:1044E000984232D183882168013B9BB2838023B9F3
:1044F000036842B31360FFF71BFF2B79DB0608D577
:104500002E8804F12C003146FFF702FFA38E0380B2
:10451000A6862B7913F0600F1CD02E884FF6FF7AF9
:1045200004F12C09564513D031464846FFF7F0FEFA
:1045300021460746B0F80680FFF7C7FFA38E3B80F1
:10454000A6864646EEE7A360D5E71A461B68C6E78F
:104550002E806E8000232B71BDE8F08700000000E4
:104560002DE9F74F0B782B2B044630D02D2B2FD174
:10457000013101250B78A3F13002092A01D92E2B34
:1045800028D1DFF86CB28846002000214FF0993A1C
:104590004FF00A0EC4461CF8013BA3F13002D2B220
:1045A000092A1DD88B4508BF824520D30EFB01F395
:1045B000A0FB0E0119440023D2B2DF43D6438F4241
:1045C00008BF864213D380185941E046E2E7013123
:1045D0000025CFE700232370204603B0BDE8F08F0D
:1045E0002BB9E5B1B1F1004F08BF01280FD3784FC7
:1045F00000234FF0FF368F4208BF864203F10109C6
:1046000010D200230A2212F0A1FA4B46F3E702234C
:104610004042237061EB4101C4E90201DCE703235E
:104620002370F9E7A3EB080202EB0806434618F8EB
:10463000017BA7F1300CBCF1090F36B2F4D92E2F53
:104640001DD1C4460FF28019D9E900894FF00A0E36
:1046500063460CF1010C1F78303FFFB2092F0ED8D2
:10466000894508BF8045F3D3A0FB0E230EFB013321
:10467000D01906F1FF3643F1000136B2E8E71A78A7
:1046800002F0DF02452A65D15A782D2A25D19F1CD8
:104690004FF0010C00224FF00A083B4617F801EBDF
:1046A000AEF1300E5FFA8EF9B9F1090F26D808FB8A
:1046B00002E29319B3F59A7FEFDDBCF1000F13D03E
:1046C000DFED447A9FED447A002D18BFF0EE477A73
:1046D00001232370C4ED027A7EE72B2A14BF5F1CEE
:1046E0009F1C4FF0000CD5E700222DB13B4B04215D
:1046F0002170C4E902236FE7394BF8E7BCF1000FE2
:1047000000D052421B78002B7FF464AF164406F1B0
:1047100026034C2B27D8002908BFB0F5000F22D262
:10472000002E07EE900AD4BF2E4B2F4BF8EEE77AFF
:10473000D8BF764203F1180286B19A420CD0F10735
:1047400048BF93ED007A4FEA660648BF67EE877A66
:104750000433F1E70022D5E7DFED247A002DB7D04E
:10476000F1EE677AB4E711F073FE002ED4BFDFF8E4
:1047700084A0DFF884A080468946D8BF764200270F
:10478000C6B1092F12D0F3070DD50AEBC7026B464D
:104790001068516803C340464946DDE9002311F023
:1047A0008DFE8046894676100137E9E7DFF84C90A8
:1047B0004FF0000815B109F1004399460423237016
:1047C000C4E9028908E700BF98999999999901006D
:1047D000FFFF0F0000000000000000800000F0FF5D
:1047E0000000F07F34B601004CB601000000C07F2D
:1047F0009999991968B60100B0B601000000F87FD8
:1048000007EE900AB8EEE77ADFED237A9FED236A90
:10481000C7EE276A9FED227AC6EE877AF7EE006A26
:1048200076EEE77A9FED1F7AF5EEC07AF1EE10FA98
:10483000D8BFF0EE467A67EE877AB3EE027A76EE6C
:10484000E76A27EE877AA6EE867AB1EE006ABCEEBA
:10485000C77A17EE100A9FED147A27EE877A0002C6
:10486000A6EE867A00F47840BCEEC77A17EE103ACE
:104870009FED0E7A67EE877AB2EE007AE6EE877ADF
:10488000DB0003F4FC630343FCEEE77A17EE902AA7
:10489000C2F3C4001843704700006F4300000000DB
:1048A000E17A143FCDCC0C3F00001842000040429A
:1048B00010B586B004460C49684610F094FA694673
:1048C00003A810F0EDFA214603A810F03AFB0146C8
:1048D00006480EF009FD03A810F040FA684610F0F3
:1048E0003DFA06B010BD00BF51B70100B42F002043
:1048F0001FB5084B0849002201A81A7010F073FA7E
:1049000001A8FFF7D5FF01A810F028FA05B05DF85F
:1049100004FB00BFA603002056B801001FB5084BDA
:104920000849012201A81A7010F05DFA01A8FFF7EA
:10493000BFFF01A810F012FA05B05DF804FB00BF3C
:10494000A603002067B8010030B587B00546FFF721
:10495000AFFF114B1B78EBB1104C2368D3B1294644
:1049600003A810F09DFA0E4903A810F0F6FA0146CC
:10497000684610F095FA03A810F0F0F9029A009931
:10498000206805F073FC2068012105F085FE68466B
:1049900010F0E4F907B030BDA6030020C8040020E1
:1049A000DD1102002DE9F0438DB006A805F092FC60
:1049B000079B002B54D02D492D4CDFF8C4902D4F70
:1049C000684610F010FA694603A810F069FA0799D2
:1049D00003A810F0D6FAFFF76BFF03A810F0BEF99A
:1049E000684610F0BBF9DDE906562E44B54237D0D3
:1049F00015F8011B0A2922D1DFF88880214640469C
:104A000010F03FFA1C4B1D49012268461A7010F045
:104A1000EAF9694603A810F043FAD8F8081003A889
:104A200010F0AFFAFFF790FF03A810F097F968466F
:104A300010F094F93946204610F044FAD6E7A368FE
:104A4000B3F5AF6F03D2204610F05DFACEE74946CA
:104A500003A810F0C8F903A8FFF776FF03A8E7E75B
:104A600006A811F06BF90DB0BDE8F0831FB8010086
:104A7000CC0300201EB80100AC0300202DB80100BB
:104A80003BB80100C003002009B1FFF731BC7047FB
:104A90002DE9F0478AB03C493C4D3D4C04A810F04C
:104AA000A2F904A8FFF704FF04A810F057F929465B
:104AB00006A805F10C02049011F07AF9049B00227B
:104AC0004FF00C08CDF8148004A81A7306F030FAE1
:104AD00004A811F033F906F0D9F906462060042045
:104AE00010F094FB2B4B0360014630462A4E07F032
:104AF000FBFC3146206807F0D7FC10222749074607
:104B000007F06AFE264B814618604FF48A7010F059
:104B10007DFB824604F0BAFD5146484605F0B8FADE
:104B200042462049384607F057FE8046042010F0E0
:104B30006DFB1D4B03600146404605F0B7FB384650
:104B400007F070FE206807F0DCFC314605F082F9C2
:104B5000206807F0D6FC05F0FDF9144901A810F013
:104B600042F901A904A810F09BF9294604A810F005
:104B7000F4F9FFF79DFE04A810F0F0F801A810F07A
:104B8000EDF80AB0BDE8F0875DB70100EFB70100AE
:104B9000A803002004B6010080B70100CAB70100D5
:104BA000C8040020A5B701001CB601006CB70100C5
:104BB00030B52DED048B87B0CDE90201DFED289AE9
:104BC0009FED289A1546002407EE904AF8EEE77A02
:104BD000F0EE498AE7EEA98A0134B1EE048AB0EE1C
:104BE000680A0DF0ADFCDDED027AF8EEE77AE0EE52
:104BF000087AB0EE680AFDEEE77ACDED047A0DF0A2
:104C00002DFDDDED037A049917480095F8EEE77A5B
:104C10000423E0EE087AFDEEE77A17EE902ACDED58
:104C2000057A02F09FFF00950323DDE904120E4888
:104C300002F098FF062CC7D141230093DDE9021250
:104C40000323094803F0D0F900950223DDE902129D
:104C5000054802F087FF07B0BDEC048B30BD00BFF4
:104C6000960A863FD80FC9BFD80300202DE9F04728
:104C7000002504460E46A946A28C276AABB29A428A
:104C80000FD907EBC3089A46D8F8041019B1336856
:104C900030465B68984747F83A900135C8F8049069
:104CA000EAE70023A384BC424FF6FF73238507D0B5
:104CB000336839465B683046984704232462E384AE
:104CC000BDE8F0871FB5036853B11A79101F01289A
:104CD00001D9022A04D1194601A8FFF72FFB019937
:104CE000084605B05DF804FBC0E9001201228260AD
:104CF000027370478B8C30B5013B0D6A9AB205EB9D
:104D0000C204616849B1638835F832509D4204D9C4
:104D10005D1C11EBC301658005D1002303604FF6D4
:104D2000FF73838030BD016003EBC213F9E72DE907
:104D3000F3470E8D4FF6FF739E4205460C4617460D
:104D40000CD0314604F12000FFF7E2FA03882385F6
:104D50002860AE80284602B0BDE8F0878B8C53B146
:104D60006E463046FFF7C6FF009B23B196E803006E
:104D700085E80300EEE7A28CE38C93421CD1B3F5E7
:104D8000007F43D05B009EB2236A3968A3424FEA9A
:104D9000C60234D10B68384611469847002835D0F2
:104DA0002346024604F1200153F804CB42F804CB19
:104DB0008B42F9D12062E684B4F82480D4F820A094
:104DC00008F101039BB2B3F5007FA3843B680CBFDD
:104DD0007F268026F1001B68384698470AEBC809F1
:104DE000002808BF00260023C9F8040021462AF83D
:104DF00038602846A9F80230FFF77CFFAAE7D1F80F
:104E0000088038461946C0470028D3D100232B60BC
:104E10004FF6FF73AB809DE737B50A6804460D4631
:104E200068460C31FFF783FF009B4FF6FF7233B9E2
:104E30000121297120462360A28003B030BD0021EA
:104E4000DA801971BDF80420F4E737B50A68044622
:104E50000D4668460C31FFF76AFF009B43B90122FB
:104E600023604FF6FF732A71A380204603B030BD44
:104E7000BDF804202360A280F7E72DE9F0418AB055
:104E800001AC84E80E00109D0F4671B907914FF6F2
:104E9000FF73ADF82030079820B107A82946FFF727
:104EA0008CFA07980AB0BDE8F0810488DDF8088024
:104EB000214605F12C00FFF72BFAADF818400590BC
:104EC000C0B1C388ADF81A30012607AC0599D9B135
:104ED0009EB12046FFF732FA089A42450DD1079954
:104EE00000239A4212D017F803C0C85C844504D14D
:104EF0000133F6E74FF6FF73E4E7294605A886F08D
:104F00000106FFF75AFAE1E70791C0E705AB93E81E
:104F1000030084E80300BEE770B58AB003AE86E8FC
:104F20000E000279202A08BF044696E8070007AD64
:104F300018BF002485E80B0044B10E9B009395E850
:104F40000E002046FFF799FF0AB070BD2046FBE730
:104F500030B504460D46D1E9000187B00123039224
:104F600004938DF8143028B1009106AB13E90E00BC
:104F7000FFF7D2FF6B68C4E90003204607B030BDDD
:104F800030B585B001466846FFF7EAFA9DF8003073
:104F9000013B032B48D8DFE803F00218242FDDED96
:104FA000027A9FED257AF4EEC77AF1EE10FA3BDB38
:104FB0009FED227AF4EEC77AF1EE10FA34D8FDEEC6
:104FC000E77A17EE900A05B030BDDDE9020110F175
:104FD000004241F10003012B08BF002A28BF002036
:104FE000F1E7DDE9020100238B426FF0004208BFC8
:104FF000824238BF0020E6E7DDE902450022104B7F
:105000002046294611F0E0FC0028DCD008A3D3E9B3
:1050100000232046294611F0CDFC0028D3D020469D
:10502000294611F0FBFCCEE70020CCE7AFF300806F
:105030000000C0FFFFFFDF41000000CFFFFFFF4E79
:105040000000E0C10000000038B5057904460B46B9
:10505000018815F0100003D003F12C00FFF758F978
:10506000023D1C2D65D8DFE805F02E6432340F6454
:1050700064641164156437646464646464646464BF
:105080006464176422644C00207838BD206820EAEC
:10509000E070FAE72068F8E7D0E9000100238B42CE
:1050A0006FF0004208BF824238BF0020EDE7D0E930
:1050B000000110F1004241F10003012B08BF002A5A
:1050C00028BF0020E1E72046FFF75AFFDDE7206810
:1050D000FAE720680830F7E7D4ED007A9FED187AF8
:1050E000F4EEC77AF1EE10FA23DB9FED167AF4EEB8
:1050F000C77AF1EE10FA1CD8FDEEE77A17EE900AA7
:10510000C3E7D0E9004500220F4B2046294611F0A5
:105110005BFC0028B9D008A3D3E900232046294628
:1051200011F048FC0028B0D02046294611F076FC4A
:10513000ABE70020A9E700BF0000C0FFFFFFDF4191
:10514000000000CFFFFFFF4E0000E0C107B502AB3B
:1051500003E90300009848B103793BB10199FFF7D7
:1051600073FF002806DB642806DCC2B2104603B0D9
:105170005DF804FB0022F9E76422F7E72DE9F0432C
:1051800087B06C4604AD184E0E9F84E8030090462D
:105190002146164A28469946FFF7DAFE3146284648
:1051A000FFF790FD494602464046FFF76DFC214659
:1051B00028460F4AFFF7CCFE3A7895E80300FFF740
:1051C000C5FF0C4A3870214602A8FFF7C1FE3146E0
:1051D00002A8FFF777FD0246DDE90F01FFF754FC57
:1051E00007B0BDE8F08300BF23B701000AB8010093
:1051F000F4B80100FFB60100F0B58DB0044604AD6F
:1052000006AE85E80600304629461A4AFFF7A0FE9A
:10521000227996E80300FFF799FF08AE207129462E
:105220003046154AFFF794FE04F116031027019348
:1052300004F11503009302973B4696E80300621DB4
:105240000AAEFFF79BFF294630460C4AFFF780FE67
:105250001223029304F13703019304F13603009300
:1052600004F126023B4696E80300FFF787FF0DB0E6
:10527000F0BD00BF9400020040B701008CB80100EF
:10528000437E6BB9D0E9043293423DBF5A1C0261A0
:105290001B784FF0FF3323EAE37303760123437651
:1052A000007E704738B5044600252046FFF7E8FF2A
:1052B0000A2806D8092808D248B101232373002000
:1052C0000AE00D2801D02028F7D16576EDE7237B91
:1052D000002B14BF0220012038BD70B505464C1EBE
:1052E000002614F8010F48B12846FFF7C9FF20B186
:1052F0002378834203D16E76F3E7022070BD03204A
:10530000FCE72DE9F04387B006460D46FFF7B8FFEE
:10531000002427462F28E3B20BD939280BD80134B3
:10532000402C23D033197776D8773046FFF7A8FF83
:10533000F0E72B28F3D0A0F12D02D2B2012AEED94A
:1053400000F0DF02452AEAD03344002283F820200F
:1053500006F1200102A8FFF703F99DF80830013B90
:10536000032B62D8DFE803F03924043E3F23EBE748
:10537000DDE90489B9F1010F08BFB8F1000F07D2C8
:105380000A232B71C5F80080002007B0BDE8F08328
:10539000F1696846FFF759FD009B0BB90420F4E75B
:1053A0001A222A71BDF804202A80C3E90089EBE79C
:1053B000DDE9048918F1004249F10003012B08BF1F
:1053C000002A01D20C23DCE7F1696846FFF73DFDB6
:1053D000009B002BE2D01C22E3E70E232B71049BE1
:1053E0002B60D1E7DDE904894946404611F05EFBB8
:1053F000074611F00BF802460B464046494611F0AD
:10540000C5FA18B10E232B712F60BDE7F16968460C
:10541000FFF71BFD009B002BC0D01E222A71BDF898
:1054200004202A80C3E90089AEE70320ADE738B540
:1054300004460D46FFF724FFA8424FF0000004BFCA
:105440006076012038BD10B550F8044B07C886B00F
:1054500003AB83E8070014F1380003D000940ECBAF
:10546000FFF75AFD06B010BDF0B5064687B0081D1F
:105470000D46FFF7E8FF05F11402044607CA03AB27
:105480006F6883E8070054B100970ECB2046FFF702
:1054900043FD6B68C6E90003304607B0F0BD204607
:1054A000F7E77F2837B50C46C1B204D82046FEF78F
:1054B000F5FF03B030BD800901F03F0182B2002347
:1054C00061F07F011F2A8DF800308DF80110C3B202
:1054D0000DD863F03F038DF802300DF1030515F888
:1054E000011D0029E5D02046FEF7D8FFF7E7C0F3FD
:1054F000891003F03F0363F07F030F288DF802301B
:10550000C3B205DC63F01F038DF8033001ADE6E79D
:1055100003F03F03801163F07F0360F00F008DF80C
:1055200003308DF804000DF10505D8E72DE9F047AB
:105530008046FFF7A5FE0024374E88F8194007463D
:1055400025464046FFF79CFE8742014688F81950E1
:105550005BD010B90220BDE8F0875C2851D14046ED
:10556000FFF78EFE0028F5D075283CD188F8195039
:105570004FF004094FF0000A4046FFF781FE002873
:10558000E8D040288BBF20F020023038373AC3B231
:1055900088BFD3B20F2B01D90320DCE709F1FF3913
:1055A00043EA0A1319F0FF091FFA83FA88F8195021
:1055B000E2D10AF520539BB2B3F5806F02D2CAF351
:1055C0000904BEE70AF510539BB2B3F5806F3DBFE7
:1055D000CAF3090A4AEA842A0AF58030504641464D
:1055E000FFF75FFFADE700239A5D9919002AD3D03A
:1055F000904203F10203F7D149780029CCD088F812
:1056000019504046FEF74AFF9BE7D8F80430002BBC
:105610000CBF042000209EE70CB801002F280ED9F3
:10562000392803D95E2803D97A2803D80120704786
:10563000402804D95A288CBF002001207047002040
:10564000704770B50446FEF7C7FE2046FFF718FE08
:1056500027281ED022281CD02046FFF711FE054621
:10566000FFF7DCFF98B10026294620466676FEF754
:1056700015FF2046FFF704FE0546FFF7CFFF002881
:10568000F2D16368002B0CBF0420002000E003204F
:1056900070BD2046FFF74AFFFAE72DE9F04F5FFAA9
:1056A00083F98DB004460D46B9F1000F00F08580F6
:1056B00000234376FFF7F6FDB8B97D212046FFF7BA
:1056C000B6FE88B90DF124082046FFF7BAFF60B98D
:1056D0002046FFF7E7FD064638B93A212046FFF796
:1056E000A6FE28B9032000E000200DB0BDE8F08F31
:1056F000D4E9013213448DF82C601E72D4E90132D2
:105700000833CDE90932E369009398E80E00284692
:10571000FFF7B3FB074600284BD1D4F81CB005A80F
:105720005946FFF779FB059E0EB90420DDE759467F
:1057300007A8FFF771FB079F002FF6D0BDF820A048
:10574000A6F806A06988BDF818304FF6FF7291429E
:105750002DD00BF12C000393FEF7DAFD039BC380E1
:10576000A5F802A031462046FEF74CFE09F1FF33B2
:105770004FF000023946204600F022F80028B4D14C
:105780002046FFF78FFD0028AFD17D212046FFF78F
:105790004EFE0028A8D12C212046FFF748FE002805
:1057A000A0D02046FFF77EFD00288DD09DE72B80FE
:1057B000D6E7E169FEF789FED8E7052095E7000006
:1057C000F8B506460C461F46FFF76CFD0546B8B90E
:1057D0003046FFF755FD662842D013D8272803D05E
:1057E0005B2817D0222840D13046FEF7F5FD304621
:1057F000FFF79CFE054618B921463046FEF702FE2B
:105800002846F8BD742822D07B2812D06E282CD1CF
:10581000184921E0402323714FF6FF7323806380F2
:105820004FF000023B462146304600F029F805467D
:10583000E6E7202323714FF6FF73238063804FF048
:1058400000023B4621463046FFF727FFEFE70623DD
:1058500023710949012323703046FFF73EFDE6E737
:105860000623237125700549F6E721463046FFF7E8
:1058700048FDDCE707B80100FCB7010001B80100F2
:105880002DE9F347DDB204460E46002D46D0002335
:105890004376FFF707FDA8B95D212046FFF7C7FD56
:1058A00078B94FF6FF7A013DD4F81C906846494616
:1058B000FFF7B2FADDF80080B8F1000F05D104203F
:1058C00000E0002002B0BDE8F0877188BDF80470E8
:1058D000514521D009F12C00FEF71AFDC7807780D1
:1058E0002B464FF0000241462046FFF769FF002893
:1058F000E8D12046FFF7D6FC0028E3D15D21204601
:10590000FFF795FD0028DCD12C212046FFF78FFD05
:105910000028C9D10320D5E73780E0E70520D1E78B
:105920002DE9F04FB5B00CAE0546844930460FF076
:105930005AFA31461CA80FF0B3FAA9681CA80FF058
:1059400020FBFEF7B5FF1CA80FF008FA30460FF059
:1059500005FA0DF13C094FF4802300242F687849A3
:105960001893AD688DF834404FF6FF7348460E9497
:105970008DF86C400C91CDF85C90ADF86430ADF8CA
:105980006E30FFF773F98DF834400C9C3D440E984F
:1059900028B103680E932146FEF7CAFCF7E78DF89D
:1059A0006C00CDE91C601E908DF87C008DF889009C
:1059B0004FF00A034FF000021AA91CA8CDE9207588
:1059C0002396FFF7FDFE044640B99DF888302BB1C1
:1059D0009DF86C3013F0080F18BF03241D9818B100
:1059E0001C9B1968FEF7A4FC08AF0CB35549384658
:1059F0000FF0F9F939461CA80FF052FA524B1CA8C7
:105A000053F824100FF0A9FAFEF79EFF1CA80FF020
:105A1000A5F938460FF0A2F900250C9C0E98002835
:105A200000F0848003680E932146FEF781FCF5E7C1
:105A30003146464A464D1CA8FFF756F91CA8FFF709
:105A400002FD1C9B00902A4669461CA80193FFF7A3
:105A50007FFA40491CA8FFF735F90C2102463E4861
:105A6000FEF746FC3D4A69461CA8FFF771FA394922
:105A70001CA8FFF727F9142102463948FEF738FC25
:105A8000384A69461CA8FFF763FA37491CA8FFF794
:105A900019F90A2102463548FEF72AFC0DF1140ACD
:105AA000314604A8324AFFF71FF99AE80700049B21
:105AB0001D9309AC0DF178080DF1080B88E807007B
:105AC00084E8070021951CA90125584622958DF8E8
:105AD0008C50FFF7C9FC9BE806002648FFF78CFBBB
:105AE000314604A8224AFFF7FFF89AE80700049B12
:105AF0001D93214B88E8070084E807001CA938465D
:105B0000CDE921358DF88C50FFF7AEFC97E8060003
:105B10001A48FFF771FB1A491CA80FF064F91CA87A
:105B2000FEF712FF1CA80FF019F976E748460C990A
:105B3000FFF79CF8284635B0BDE8F08F01B70100AB
:105B40001C00002014B7010004000020051402000E
:105B50009AF5010023B7010020000020BBB8010026
:105B6000360000205205020020B701002C00002062
:105B7000F4B801004C0000209CF401009C000020BF
:105B800026B70100F8B51D4E1D4F1E481E4D1F4C77
:105B90004FF4A072F02101F071FC314638460FF04D
:105BA00022F938461A4F2A4621460FF0F5FE3146B3
:105BB00038460FF018F93846164F2A4621460FF09E
:105BC000EBFE314638460FF00EF92A46214638469C
:105BD0000FF0E2FE104B4EF27F721A800F4B41F233
:105BE00006121A800E4B42F62B221A800D4B4122D0
:105BF0001A800D4B42F2E9121A80F8BD1EB801005E
:105C0000CC030020D8030020000000205D4D0100DF
:105C1000C0030020B0030020A2030020A403002042
:105C20009E0300209C030020A00300202DE9F341E7
:105C30005E1820EAE077C7F5A075F02EA8BFF02621
:105C40009542A8BF1546002D11DDDFF8288021EA16
:105C5000E174B4420BDA2046FEF7D2FD22460090F2
:105C60002B463946404601F021FB0134F1E702B0F2
:105C7000BDE8F081D80300202DE9F04F642B924657
:105C800028BF642387B00AFB03F4642394FBF3F476
:105C9000234B244DBDF844201B8805924FF0080883
:105CA0004FF0040906460F46052C02930A46534658
:105CB0000146CDE900892846B8BF0524BDF840B0AB
:105CC00002F050FB184B1B88CDF80080CDE9019302
:105CD0003A4653463146284602F0BCFA23463A4635
:105CE00031462846CDE9019BCDF8008002F03AFB11
:105CF000A31F4FF6FF720092F11C7A1C284623EA7C
:105D0000E37301F0D3FA059B109307F10B02231FF5
:105D1000B11C284607B0BDE8F04F01F0C7BA00BF7C
:105D2000A4030020D80300209E030020702837B56C
:105D3000044601EB000518DC6F2D18DD154B1648E5
:105D40001B88009370224FF49073102101F0AEFA7B
:105D5000CF2D0CDD41F6A8130093D0224FF4A07391
:105D600000210D4801F0A2FA01E0D028F0DD162C48
:105D70002246B8BF1622CD2DA8BFCD25AA4207DAEC
:105D800041F6871300939021AB1A034801F0F2FA11
:105D900003B030BDA0030020D803002010B5841E3E
:105DA000214600205E234FF4A072FFF73FFF2046FC
:105DB0005E21BDE81040FFF7B9BF000070B5254B6C
:105DC000254C198888B0204602F01CFB204604218F
:105DD00002F020FB214902A80FF005F802A905A84E
:105DE0000FF05EF81E4905A80FF0B7F8022501462E
:105DF000E12346220095204603F052F805A80EF054
:105E0000ADFF43F24B2602A80EF0A8FF20460096F5
:105E10001223D822772101F0ADFA0095E123A922BF
:105E20001049204602F086FE204600961223D82212
:105E3000DB2101F09FFAE12340F2011200950A49AB
:105E4000204602F077FE0021204602F0E3FA08B077
:105E500070BD00BFA2030020D8030020F8B60100E7
:105E600020000020360000202C00002013B5002464
:105E70002046FEF7C5FC224600904FF4A073002197
:105E80001848013401F012FAF02CF1D1164B1548E4
:105E90001B88009370224FF49073102101F006FAD2
:105EA00041F6871300931622B72390210D4801F085
:105EB00061FA41F6A8130093D0224FF4A073002199
:105EC000084801F0F3F9094B06481B8801931F238A
:105ED0000093D1224FF4A073002101F073F902B0B6
:105EE00010BD00BFD8030020A00300209C030020A9
:105EF00013B50C4B0C4C1B8801931F2300932046B9
:105F00004FF4A073D122002101F05CF941F6A813EF
:105F10000093D0224FF4A0730021204601F0C6F96F
:105F200002B010BD9C030020D80300202DE9F04FE3
:105F300089B09B469DF84850BDF84C3005936D08DC
:105F40006F4215FB05F380468946924604933C4612
:105F500004FB04F303930AEB0403069308EB040326
:105F60003E460793039B049A06FB063393420BDCE1
:105F7000059B01930BEB0603009309EB0602069BBE
:105F80000799064800F050FD0136B542EADA0134BF
:105F9000A542DDDA09B0BDE8F08F00BFD8030020CC
:105FA00070B52DED068B07EE900A86B0CDE90401A1
:105FB0009FED2DAAB8EEE79A1646002407EE904A08
:105FC000F8EEE78A032568EE8A8A0134B0EE680AA3
:105FD0000CF0B6FADDED057AF0EE409AB0EE680A04
:105FE000B8EEE78A0CF03AFBF1EE0C7AB0EE497AA3
:105FF000A9EEA77A01960095BDEEC77A8DED027ADB
:10600000B0EE487AA0EE277AFDEEC77AB0EE497A74
:10601000CDED037AF0EE007AA9EEA77ADDE902234E
:10602000A0EE278AF0EE477AFDEEE77ABDEEC87A59
:1060300017EE900A17EE101AFFF778FF009602236A
:10604000DDE90212094801F0CFFF082CB6D1412347
:106050000093DDE904122B46044801F0C5FF06B0A9
:10606000BDEC068B70BD00BFD80F493FD8030020A0
:106070002DE9F04304468DB00D467348002102F02F
:10608000C9F902222168704802F0A6FC94F84E304B
:10609000B4F84A2000F11707022097FBF0F77F427F
:1060A00007F1580005F10B01002B00F0C980FFF744
:1060B00077FFDFF8A4916448B9F80010022602F0D7
:1060C000A1F96B1C07F16702216800965E4802F097
:1060D00031FDB4F84A105C4802F094F921790A22A3
:1060E00003A80EF09FFE03A90722574802F00AFDFD
:1060F000042280465549544802F06EFC00EB080724
:106100003744072397FBF6F7C7F1500700933A4649
:1061100005F1190303A94C4802F0C2FE08EB07027F
:106120000423324400934949474805F12E0302F005
:1061300001FDB4F84A10444802F064F901214248D4
:1061400002F068F905F148035022009640493E48A4
:1061500002F0F0FC00213C4802F05CF905F10F0769
:10616000B9F80010384802F04DF93B469A22611DFB
:106170000096354802F0DEFC3146334802F04AF919
:10618000344906A80EF02FFE06A909A80EF088FED5
:1061900004F1160109A80EF0E0FE3B464FF495729B
:1061A00001460096284802F07BFE09A80EF0D6FDB5
:1061B00006A80EF0D3FD0021234802F02BF9B4F815
:1061C0004C200192B4F84A20637D009205F123012E
:1061D00090229A20FFF750FD05F13307B9F800101F
:1061E000194802F00FF93B469A2204F12601009665
:1061F000154802F09FFC3146134802F00BF93B466C
:106200004FF4957204F1370100960F4802F092FCAA
:1062100000210D4802F0FEF8B4F84C200192B4F8C9
:106220004A2094F83630009205F1470190229A20D6
:10623000FFF722FD03A80EF091FD0DB0BDE8F0833D
:10624000FEF7B6FC35E700BFD803002042B70100D7
:1062500044B701004AB70100A203002010B5084C62
:10626000FFF704FE20461021FFF702FF04F1500063
:106270007421FFF7FDFEBDE81040FFF79FBD00BF92
:106280004C0000201FB54FF4E1311448144C0DF0C0
:10629000CFFA4FF4967006F0FCFD124901A80EF0FB
:1062A000A2FD01A8FEF704FB01A80EF057FD204651
:1062B000002101F0EBFB2046032101F0E9FB204621
:1062C000012101F04BFC00221146204602F09DF80E
:1062D000FEF7DEFBFFF7C2FF04B010BDB42F0020B5
:1062E000D8030020A8B8010010B50B4C1020FFF710
:1062F00055FD10212046FFF7BBFE7420FFF74EFD31
:1063000004F150007421FFF7B3FEFFF7F1FDBDE883
:106310001040FFF753BD00BF4C00002030B5274CA4
:10632000237887B0C3B1264968460EF0B9FD002333
:106330002449237068460EF043FE002831D02249DC
:1063400003A80EF050FD03A8FEF7FEFA03A80EF016
:1063500005FD68460EF002FD1C4C2378C3B91C4DA8
:106360002B78ABB14FF4FA7006F093FD194B186817
:1063700006F0C7F803F0EEFD237817492B7003A849
:106380000EF031FD03A8FEF793FA03A80EF0E6FC29
:10639000237823B10E4B1A780AB901221A7007B07C
:1063A00030BD6846FFF7BCFA0028D2D069460548E0
:1063B0000EF067FDFFF798FFCBE700BFAC030020AE
:1063C000C0030020B003002075B80100A603002020
:1063D000BC030020A80300208EB8010000207047F5
:1063E000704790F8843013B1B0F97C007047B0F971
:1063F0005000704790F8843013B1B0F980007047B6
:10640000B0F95400704737B50568047F0094AC6A52
:10641000A04703B030BD00002DE9F0411F4C069DA0
:1064200088464FF6FF71C0E9161100214620164636
:106430001F460FF057F92A21204603F005F80121E5
:1064400046200FF04FF91FFA88F1204602F0FFFFB7
:10645000B9B2204602F0FBFF002146200FF042F9BE
:106460002B21204602F0F0FF012146200FF03AF9DF
:10647000B1B2204602F0EBFFA9B2204602F0E7FFDE
:10648000002146200FF02EF92C21204602F0DCFFDF
:1064900001214620BDE8F0410FF024B99805002005
:1064A00008B590F845306BB990F8443053B90121E4
:1064B00080F8441045200FF015F90348BDE8084066
:1064C00002F0B2BF08BD00BF9805002090F844302C
:1064D00013B5ABB100240B4B00938DF805408DF83C
:1064E000044002AB80F8444013E90600064802F07D
:1064F0007DFF2146452002B0BDE810400FF0F2B804
:1065000002B010BD80F0FA02980500202DE9F04F8E
:1065100093B0CDE903121D4690F885201C9B029391
:106520001D9B059304469DF87880002A40F0AB81BE
:10653000D0F8B410002940F00081466F039BC16E73
:106540001E448E4280F29F81876F049B026F1F441E
:10655000974280F29881D0F864C0062313FB086349
:10656000634540F39081806E07EBC803834240F39C
:106570008A81FF2D00F2878194F8A7301BB9AF2DD7
:1065800084BF0135ADB26645C0F2838094F81DB07A
:10659000062313FB0B6399427BDD874279DB07EB14
:1065A000CB0B5A45CCBF4FF0000B4FF0010BB8F1AD
:1065B000010F4FEA85096FD1029B059A93426BD078
:1065C000BBF1000F68D194F844300DF1400A83B15B
:1065D000AE4B10938DF845B08DF844B09AE80600A4
:1065E000AB4884F844B002F001FF594645200FF053
:1065F00079F82368FA1D0092D3F83CB03A46731D2F
:1066000031462046D847A34A4D4400231544EA5C4E
:106610000AF803200133052BF9D100239C4EBDF865
:1066200008708DF845300825BDF814904FF0000B28
:106630001AF80B3018EA030F14BF394649463046A2
:106640000BF1010B02F003FFBBF1050FF0D14FEA94
:10665000480349463046013D5FFA83F802F0F7FEF1
:1066600015F0FF05E0D194F84530002B40F00B8188
:1066700094F84430002B40F00681012184F8441046
:1066800045200FF02FF8824813B0BDE8F04F02F01C
:10669000CBBE4FF0010B8AE7012384F845307D4BD8
:1066A0004D442B44DDF80C9006930026052E16BFB2
:1066B000069B00259D5DB8F1010F20D1029B059A34
:1066C00093421CD1039B002703EB060AEA0708D577
:1066D0002368049AD3F810B0029B3A4451462046EE
:1066E000D8470137082F4FEA5505EFD10136062E5E
:1066F000C144DBD194F8463084F84530B5E7DDF885
:1067000010A00827EB0712D52368029ACDE9008272
:106710004946D3F824B0524643462046D847013F65
:1067200017F0FF074FEA5505C244EBD1DEE7029BA5
:10673000059A9342F3D02368E8E70B899D42C0F0A5
:10674000A2804889A842C0F09E800120ED1A84F8FA
:1067500045000C23486809680C91ADB25D432B18C5
:10676000B8F1010F93F907A0295A069188BF0FFAD3
:106770008AF21979059198BF9346597988BF079293
:1067800093F90830049A0D914FF0000588BF0FFA75
:1067900083FB134498BFCDF81CB00895A9460B9312
:1067A0000D9B4B45A6D9049A0BEB0903099303FBF8
:1067B00008230B9A0E9300264A4433460F920599FC
:1067C000F2B2914235D93DB906990C9A525C0892C1
:1067D0000A46013206928025089A2A400A9204D07D
:1067E00001339BB26D080136E9E7002BFAD0B8F10E
:1067F000010F22680CD1029803990090126A51444B
:1068000031441746C91A0F9A2046B8470A9BE9E750
:1068100002980799CDE9008031440398526AC91A59
:10682000174608FB010103FB08F30E9A2046B84700
:10683000ECE77BB1B8F1010F226810D103990598FC
:106840005144014402980090166A0B9AC91A4A44AE
:106850002046B04709F101095FFA89F9A0E70598D8
:10686000079901440298CDE900800498566A099A74
:1068700008FB02020398C91A08FB010103FB08F395
:106880002046B047E6E713B0BDE8F08F80F0FA028B
:106890009805002081E401002DE9F34190F885700E
:1068A00004469846002F79D1436FCE18436E9E421E
:1068B00074DB836FD518836E9D426FDBC36E9E427F
:1068C0006CDA036F9D4269DA90F844308BB1354B36
:1068D00000938DF805708DF8047002AB80F8447059
:1068E00013E90600304802F081FD394645200EF0DC
:1068F000F9FEE36D9E4215D0002146200EF0F2FE17
:106900002A21294802F0A0FDB7B2012146200EF04D
:10691000E9FE3946244802F09AFD3946224802F041
:1069200096FDE665A36D9D4215D0002146200EF030
:10693000D9FE2B211C4802F087FDAEB20121462072
:106940000EF0D0FE3146184802F081FD314616485F
:1069500002F07DFDA565002146200EF0C3FE2C212E
:10696000114802F071FD012146200EF0BBFE1FFA16
:1069700088F10D4802F06BFD94F8453073B994F836
:1069800044305BB9012184F8441045200EF0AAFE82
:10699000054802B0BDE8F04102F046BD02B0BDE8D6
:1069A000F08100BF80F0FA029805002008B50121AF
:1069B00080F8441045200EF095FE0248BDE80840DE
:1069C00002F032BD9805002090F8443073B50446BB
:1069D0000E4693B10025124B00938DF805508DF8AB
:1069E000045002AB80F8445013E906000D4802F051
:1069F000FDFC294645200EF075FE3146094802F09F
:106A000026FD94F8453043B994F844302BB920461C
:106A100002B0BDE87040FFF7C9BF02B070BD00BF53
:106A200080F0FA02980500202DE9F04F05461C463B
:106A300095F8853085B008461746DDE90E18002B1D
:106A400040F09B808A1A0123002A85F84530A4EB88
:106A50000003B8BF5242002BB8BF5B429A4205DC2C
:106A60000E46214634463E46074630468F4205DCF8
:106A70002646044630460E4639463746061B002E4B
:106A8000B8BF7642A7EB010AA042CCBF01204FF06D
:106A9000FF309A42029603904FEA6A0689464FF009
:106AA000000341DD4F4520DB029AB61A03F10103D2
:106AB0000FD5012B2A680FD1D2F810B043460A46F1
:106AC00028462146D847039B09F101011C4456443E
:106AD000002309F10109E5E7CDF80080D2F81CB0E8
:106AE00028460A462146D847EDE73BB12A68CDF84B
:106AF0000080D6690A4621462846B04795F84630B8
:106B000085F84530002B38D195F84430002B34D12E
:106B1000012185F8441045200EF0E4FD184805B029
:106B2000BDE8F04F02F080BC4F451EDB029AB61A5A
:106B300003F101030ED5012B2A680ED1D2F810B053
:106B4000434622462846D847039B09F101011C44CD
:106B50005644002309F10109E6E7CDF80080D2F898
:106B600020B028462246D847EEE7002BC6D02A6838
:106B7000CDF80080166A2246BEE705B0BDE8F08F6A
:106B80009805002070B5064D06460C4614F1FF34FA
:106B900004D33146284602F05AFCF7E770BD00BF27
:106BA000980500202DE9F04F99468FB090F8853078
:106BB000059204460D469DF860201BB100200FB0E1
:106BC000BDE8F08F0029F9D0012A25D1427F036862
:106BD000029202690192C26800925E694A460B46BF
:106BE0000599B047D4F8B42022B9607F00EB40008B
:106BF0004000E4E713899D42E0D35189A942DDD3E7
:106C0000ED1A5368ADB20C2202FB0535637FA879FB
:106C100010FB03F000B2D2E7931EA1F12005062B72
:106C2000ADB201D85F2DC9D8022A21D1A84B53F8A3
:106C300025B0A84B13F805A010230693059B666F9B
:106C4000607F656EA76F1E440AFB0063AB424F4432
:106C500002DBE16E8E4224DB069901FB007CA16E13
:106C60008C4502DB216F8F421BDB10FB0AF0D1E762
:106C7000D31E052B0FD802EB420397499B00C8583F
:106C80000B4450F825B05B6813F805A00C2303FBF8
:106C900002131B7AD1E74FF0000BCDF818B0DA469B
:106CA000CCE7AE42C0F2A480E16E8B4280F2A080BD
:106CB000A36E9F42C0F29C80069B03FB0075236F6E
:106CC0009D42B4BF00250125022A40F075810AF1DA
:106CD0000603DB100793D4E903239A4204D001286A
:106CE00002D1002D00F01481012384F845300023E7
:106CF0000893069B089A934200F0F780D4E9033288
:106D000093420AD0637F2168CDE9003220464D6A64
:106D1000059903FB0AF34A46A8474FF00008079A73
:106D2000637F424500F0DA801BF80860002E5CD0DB
:106D3000012B4FEAC80572B25CD1059B002A05EB16
:106D4000030105DA23684A461F69E3682046B8470D
:106D5000720608D5059B591C23684A461F69E368DB
:106D600029442046B847B30608D5059B991C2368DB
:106D70004A461F69E36829442046B847F70608D504
:106D8000059BD91C23684A461F69E36829442046AD
:106D9000B847300708D5059B191D23684A461F6967
:106DA000E36829442046B847710708D5059B591D5B
:106DB00023684A461F69E36829442046B847B2075A
:106DC00008D5059B991D23684A461F69E368294435
:106DD0002046B847F30708D5059BD91D23684A46C6
:106DE0001E69E36829442046B04708F1010896E788
:106DF000012569E70599002A05FB031508DAE16812
:106E00002268CDE900312046576A29464A46B847EC
:106E1000770609D5637FE1682268CDE90031204615
:106E2000576AE9184A46B847B0060AD5637FE16851
:106E30002268CDE900312046576A05EB43014A46F6
:106E4000B847F1060BD5637FE1682268CDE90031D0
:106E50000321576A01FB03514A462046B8473207CF
:106E60000AD5637FE1682268CDE900312046576A80
:106E700005EB83014A46B84773070BD5637FE1688A
:106E80002268CDE900310521576A01FB03514A46CA
:106E90002046B847B7070BD5637FE1682268CDE984
:106EA00000310621576A01FB03514A462046B84784
:106EB000F6079AD5637FE1682268CDE900310721A2
:106EC000566A01FB03514A462046B0478DE700BF92
:106ED00048EA0100C8F1010084E901009944089BD7
:106EE00001330893079B9B4403E794F8463084F8EA
:106EF00045305BB994F8443043B90121452084F80A
:106F000044100EF0EFFBA54802F08EFA607FACE66D
:106F100094F844308BB1A24B0C938DF835508DF81A
:106F200034500EAB13E906009C4884F8445002F03C
:106F30005DFA294645200EF0D5FB069A2168BA185D
:106F4000013A009206EB0A03CD6B3A463146013B0B
:106F50002046A847914F0026069BB34229D0079BA5
:106F60005B4408935546089B9B451BD09BF800301B
:106F70000593A5F108084FF080098DB1059B13EA30
:106F8000090F14BFA189218A3846013D02F05FFA3A
:106F900045454FEA5909F0D10BF1010B4546E2E7AF
:106FA000A846F9E71DB1218A384602F050FA0136A9
:106FB000D2E794F845309CE794F844309BB14FF009
:106FC0000008774B0C938DF835808DF834800EAB2C
:106FD00013E90600714884F8448002F007FA41463C
:106FE00045200EF07FFB069A02FB0AF20792D4E9D5
:106FF00003120123914284F8453061D1002D40F005
:107000008B80637F13FB03F2013BDBB2CDE90553B9
:10701000D2B20A92079B059A93427FF766AF1BF89C
:10702000013B1D0647D592FBFAF903F07F030133BC
:107030000993069B0AFB1928002B2CD0637F08FBC1
:10704000036809FB0379099B0893089B013BDBB2AA
:10705000FF2B089319D0069A23684A440092DB6BF1
:107060001D46069B4A46434441462046A847069B88
:10707000A3B10A9B013BDBB2FF2B0B9312D0A1897A
:10708000464802F0E4F90B9BF4E7099B059A1A4481
:1070900013460593BEE7B044B944D4E7A1893F48FD
:1070A00002F0D5F9637F984403FB0A629045CCDB7C
:1070B0009944B046C9E7059A013352FA83F3E8E7E9
:1070C000627F012A27D13DBB069A21683A44013AE2
:1070D000009206EB0A03CD6B013B3A46314620464F
:1070E000A847079B002B7FF700AF9BF8001008060E
:1070F0000AD501F07F0101315B1AA0890793FFF7E0
:1071000041FD0BF1010BECE7079B208A0131C9B26D
:107110005B1A0793F3E71D464FF00008079B4345B2
:107120007FF7E3AE1BF8016BE36832062FD59BB205
:10713000089306F07F060125637F059998FBFAF70F
:1071400001360AFB1782F6B203FB021103FB079319
:107150000693B0440023013EF6B2FF2E22D0013345
:1071600098188245F7DC55B1627F08982768CDE909
:107170000020786A53430746069A2046B847637F43
:10718000069A05991A44002306921A46E3E72269F3
:1071900091B208919A4208BF0025CDE798050020DA
:1071A00080F0FA02002BB9D0002DB7D0627F089E84
:1071B0002068CDE900265343466A069A2046B04728
:1071C000ACE700BF2DE9FF471F4690F88530044625
:1071D000DDE90C8A002B62D1436FC06ECD18854269
:1071E0005DDAA36FD618236F9E4258DA626EA16EE5
:1071F0009542BEBFAD1A7F1915468E42BCBF761AA6
:10720000B04405EB0702B8BF0E46904206EB0802F9
:10721000B8BF471B9342B8BFA3EB0608002F3EDD63
:10722000B8F1000F3BDD94F844309BB14FF00009FA
:107230001C4B02938DF80D908DF80C9004AB13E964
:107240000600194884F8449002F0D0F849464520D9
:107250000EF048FA06EB08022168013A0092EB1999
:10726000013BD1F83C90324629462046C84708FBEE
:1072700007F11FFA8AF0FFF785FC94F8453073B9DF
:1072800094F844305BB9012184F8441045200EF095
:1072900029FA054804B0BDE8F04702F0C5B804B0CB
:1072A000BDE8F08780F0FA02980500202DE9F04350
:1072B0001E4685B090F88530DDF830900446002BEE
:1072C00050D1836FD718836E9F424BDB436FCD182D
:1072D000C36E9D4246DA026F974243DA426E954290
:1072E000BEBFAD1A76191546AA199342B8BF5E1BE8
:1072F000002E37DD90F844309BB14FF000081B4B57
:1073000002938DF80D808DF80C8004AB80F84480DA
:1073100013E90600164802F069F8414645200EF0D0
:10732000E1F922680097AB19013BD2F83C8029466D
:107330003A462046C04731461FFA89F0FFF722FC43
:1073400094F8453073B994F844305BB9012184F85E
:10735000441045200EF0C6F9054805B0BDE8F043DD
:1073600002F062B805B0BDE8F08300BF80F0FA0219
:10737000980500202DE9F0431E4685B090F8853031
:10738000DDF830900446002B51D1436FCF18436E87
:107390009F424CDBC36E9F4249DA836FD518036F5F
:1073A0009D4244DA816E8D42BEBF6D1A76190D463C
:1073B000AA199342B8BF5E1B002E38DD90F8443006
:1073C0009BB14FF000081B4B02938DF80D808DF898
:1073D0000C8004AB80F8448013E90600164802F0E4
:1073E00005F8414645200EF07DF9AB192268013BB6
:1073F0000093D2F83C803B462A4639462046C04797
:1074000031461FFA89F0FFF7BDFB94F8453073B998
:1074100094F844305BB9012184F8441045200EF003
:1074200061F9054805B0BDE8F04301F0FDBF05B0C6
:10743000BDE8F08380F0FA0298050020002310B523
:1074400080F8843080F88530C0E91D33C0E91933F5
:10745000036804465B6B98472368E0661B6B204615
:107460009847236820675B6B204698472368E0674E
:107470001B6B20469847C4F8800010BD2DE9F041F1
:10748000304B0360044600250126884617464560B8
:107490000572457280F8205080F8255080F82650FB
:1074A000056414222946B8300FF0EDFD2046C4E9EA
:1074B0003355C4E93555C4E93755C4F8E45084F868
:1074C000E85084F8E960C4F8EC50C4F85080C4F87F
:1074D00048806765E764FFF7B1FF4FF6FF73C4E9C3
:1074E0000335C4E9053540F20112C4E9163348F208
:1074F000D613C4E92555C4E92255C4F8905084F840
:10750000B05084F8A25084F8A36084F8A450E261DB
:1075100084F8A55084F8446084F8455084F84650B7
:1075200084F8A66084F8A75084F8A86084F8A9506D
:107530002566C4E90C55C4E90E55C4F89C302046B4
:10754000BDE8F081F8E9010008B5012145200EF001
:1075500085F8012145200EF0C5F8012146200EF0E6
:107560007DF8012146200EF0BDF8012147200EF0E4
:1075700075F801214720BDE808400EF0B3B80000BF
:1075800090F8443073B504460E4693B10025164B6F
:1075900000938DF805508DF8045002AB80F84450EC
:1075A00013E90600114801F021FF294645200EF09D
:1075B00099F8002146200EF095F831460B4801F06D
:1075C00043FF012146200EF08DF894F8453043B971
:1075D00094F844302BB9204602B0BDE87040FFF764
:1075E000E5B902B070BD00BF80F0FA029805002036
:1075F00090F8443073B504460E4693B10025164BFF
:1076000000938DF805508DF8045002AB80F844507B
:1076100013E90600114801F0E9FE294645200EF065
:1076200061F8012146200EF05DF831460B4801F06B
:107630000BFF002145200EF055F894F8453043B972
:1076400094F844302BB9204602B0BDE87040FFF7F3
:10765000ADB902B070BD00BF80F0FA0298050020FD
:1076600090F8A63073B50446C3B3FFF76DFFEF4A39
:10767000EF48D2F87C36012505FA03F32363D2F8EC
:10768000943605FA03F36363002601F087FE29466A
:10769000452084F8466084F8456084F844500DF035
:1076A000DDFF294645200EF01DF8294646200DF045
:1076B000D5FF294646200EF015F894F8453084F899
:1076C000A6605BB994F8443043B9452084F844502F
:1076D00029460EF007F8D64801F0A6FE0121472002
:1076E0000DF0BCFF00212046FFF74AFF0121472093
:1076F0000DF0F8FF052005F0CCFB002147200DF030
:10770000F1FF142005F0C5FB012147200DF0EAFF31
:10771000962005F0BEFB94F8443093B10025C54B8C
:1077200000938DF805508DF8045002AB13E9060064
:10773000BF4884F8445001F059FE294645200DF019
:10774000D1FFEF212046FFF71BFF03212046FFF763
:107750004FFF80212046FFF74BFF02212046FFF715
:1077600047FFCF212046FFF70BFF00212046FFF700
:107770003FFFC1212046FFF73BFF30212046FFF7A6
:1077800037FFED212046FFF7FBFE64212046FFF77F
:107790002FFF03212046FFF72BFF12212046FFF782
:1077A00027FF81212046FFF723FFE8212046FFF72E
:1077B000E7FE85212046FFF71BFF00212046FFF74B
:1077C00017FF78212046FFF713FFCB212046FFF754
:1077D000D7FE39212046FFF70BFF2C212046FFF76B
:1077E00007FF00212046FFF703FF34212046FFF763
:1077F000FFFE02212046FFF7FBFEF7212046FFF7A0
:10780000BFFE20212046FFF7F3FEEA212046FFF7C6
:10781000B7FE00212046FFF7EBFE00212046FFF7D0
:10782000E7FEC0212046FFF7ABFE23212046FFF7ED
:10783000DFFEC1212046FFF7A3FE10212046FFF7FF
:10784000D7FEC5212046FFF79BFE3E212046FFF7CD
:10785000CFFE28212046FFF7CBFEC7212046FFF7A9
:107860008FFE86212046FFF7C3FE36212046FFF714
:1078700087FE48212046FFF7BBFE3A212046FFF74E
:107880007FFE55212046FFF7B3FEB1212046FFF7CA
:1078900077FE00212046FFF7ABFE13212046FFF7BD
:1078A000A7FEB6212046FFF76BFE08212046FFF712
:1078B0009FFE82212046FFF79BFE27212046FFF7EF
:1078C00097FEF2212046FFF75BFE00212046FFF7DE
:1078D0008FFE26212046FFF753FE01212046FFF7A9
:1078E00087FEE0212046FFF74BFE0F212046FFF7E1
:1078F0007FFE31212046FFF77BFE2B212046FFF73C
:1079000077FE0C212046FFF773FE0E212046FFF77D
:107910006FFE08212046FFF76BFE4E212046FFF741
:1079200067FEF1212046FFF763FE37212046FFF76F
:107930005FFE07212046FFF75BFE10212046FFF780
:1079400057FE03212046FFF753FE0E212046FFF786
:107950004FFE09212046FFF74BFE00212046FFF78E
:1079600047FEE1212046FFF70BFE00212046FFF7EE
:107970003FFE0E212046FFF73BFE14212046FFF775
:1079800037FE03212046FFF733FE11212046FFF783
:107990002FFE07212046FFF72BFE31212046FFF75F
:1079A00027FEC1212046FFF723FE48212046FFF78E
:1079B0001FFE08212046FFF71BFE0F212046FFF780
:1079C00017FE0C212046FFF713FE31212046FFF75A
:1079D0000FFE36212046FFF70BFE0F212046FFF752
:1079E00007FE11212046FFF7CBFD94F845305BB927
:1079F00094F8443043B90121452084F844100DF037
:107A000071FE0B4801F010FD782005F042FA94F861
:107A10004430D3B10025074B00938DF805508DF805
:107A2000045002AB13E9060006E000BF5405020053
:107A30009805002080F0FA02134884F8445001F0C1
:107A4000D5FC294645200DF04DFE29212046FFF7A3
:107A500097FD94F845305BB994F8443043B901215F
:107A6000452084F844100DF03DFE074801F0DCFC91
:107A7000012148200DF0F2FD0121482002B0BDE8AF
:107A800070400DF02FBE00BF98050020FFF7E8BD45
:107A900090F8443073B504460E4693B100252D4B43
:107AA00000938DF805508DF8045002AB80F84450D7
:107AB00013E90600284801F099FC294645200DF0FD
:107AC00011FE06F00706E67736212046FFF758FD3F
:107AD000E37F072B0DD8DFE803F00428303234367B
:107AE000383A48212046FFF783FDA36C2365E36CF9
:107AF00063650A200DF00CFB94F845305BB994F8EF
:107B0000443043B90121452084F844100DF0EAFDCA
:107B1000114801F089FC4FF6FF732046C4E9163383
:107B200002B0BDE87040FFF789BC28212046FFF76E
:107B30005FFDE36C2365A36CDAE78821D2E7E821D7
:107B4000F4E7C821CEE76821F0E70821CAE7A821B9
:107B5000ECE700BF80F0FA029805002080F8A5103D
:107B6000704700002DE9F04F8FB0B3F100090446D3
:107B7000CDE90812189D40F317810123A3EB0902F8
:107B800004926FF0010202FB09F2CDE90B2380F8A9
:107B900045304FF0000B4FF0FF360A93049B002B4B
:107BA0000EDA0A9A02320A920A99049A0A440BF1EE
:107BB00001030492B34600E05B465E469B46EDE758
:107BC0000B9B049A02330B93099B0B994B4405932F
:107BD000099B0A44A3EB090A089B0492089A4B44A8
:107BE0000693A2EB0B08089B099AABEB0607A3EBE5
:107BF0000903A2EB0B02012F07930392236840F3C2
:107C000094801B6A9C460C9B002B3ED07F00013F5A
:107C100066463B46059A009541462046B047236894
:107C200000951E6A52463B4641462046B0472368AF
:107C30000095DE69039A06993B462046B0472368C3
:107C40000095DE69039A07993B462046B04700231A
:107C50000C9309F1FF39CB45AEDB94F8463084F83C
:107C60004530002B40F0A08094F84430002B40F0C9
:107C70009B80012184F8441045200DF033FD4C48D1
:107C80000FB0BDE8F04F01F0CFBB731C0D936646FB
:107C90003B46059A009541462046B047236800952B
:107CA0001B6A52461E4641463B462046B047089B4B
:107CB0000D9A009503EB020823681B6A52461E4684
:107CC00041463B462046B04723680095D3F820A0A4
:107CD000059A3B4641462046D047099B0D9A0095A0
:107CE0001A4423680699D3F81C8020463B46164662
:107CF000C04723680095D3F81C80039A06993B4639
:107D00002046C04723680095D3F81C80039A079942
:107D10003B462046C04723680095D3F81C8007994E
:107D20003B4632462046C04793E71F69059A2B46DB
:107D300041462046B847236852461F6941462B46B4
:107D40002046B847089B0136F71823685246D3F8F7
:107D5000108039462B462046C0472368059AD3F841
:107D6000108039462B462046C047099B06991E4481
:107D7000236832461F6920462B46B8472368039A7A
:107D80001F6906992B462046B8472368039A1F6946
:107D900007992B462046B847236807991F69324642
:107DA0002B462046B84754E70FB0BDE8F08F00BF20
:107DB000980500202DE9F04F8BB017461D1E9DF849
:107DC0005020039204460E46DDF8548040F30781AC
:107DD000C5F1010304936FF001036B430793012383
:107DE00080F84530069302F001034FF0000B089332
:107DF00002F00203D9460993049B002B0DDA069B7F
:107E000002330693069A049B1344049309F1010973
:107E10002B4600E0CB461D46EEE7079B0233079357
:107E2000079A049BA9EB0B0A1344BAF1010F0493C0
:107E30006FD1089B8BB123687A1BD3F810A0A6EBF7
:107E4000090143462046D0472368A7EB0902D3F82F
:107E500010A0711B43462046D047099B93B123686D
:107E6000A7EB0902D3F810A0711943462046D0476A
:107E7000236806EB0B01D3F810A07A1B43460131AF
:107E80002046D047039B580713D5236806EB0B0108
:107E9000D3F810A07A19434601312046D047236811
:107EA00007EB0B02D3F810A00132434671192046AC
:107EB000D047039B190712D5236807EB0B02D3F8B1
:107EC00010A001324346711B2046D04723687A191F
:107ED000D3F810A0A6EB090143462046D047A94598
:107EE00005F1FF3396DB94F8463084F84530002BDB
:107EF00075D194F84430002B71D1012184F84410DD
:107F000045200DF0EFFB37480BB0BDE8F04F01F016
:107F10008BBA0BF101030593089BABB12368CDF835
:107F20000080D3F820B07A1B5346A6EB0901204607
:107F3000D8472368CDF80080D3F81CB0A7EB09021E
:107F40005346711B2046D847099BABB12368CDF837
:107F50000080D3F81CB0A7EB0902534671192046E4
:107F6000D84723680599CDF80080D3F820B07A1B54
:107F7000534671182046D847039B5A0715D52368E6
:107F80000599CDF80080D3F820B07A1953467118BE
:107F90002046D8472368059ACDF80080D3F81CB056
:107FA000BA18534671192046D847039B1B0796D52C
:107FB0002368059ACDF80080D3F81CB03A445346A4
:107FC000711B2046D8472368CDF80080D3F820B035
:107FD0007A195346A6EB09012046D8477FE70BB034
:107FE000BDE8F08F980500202DE9F04F87B01D46C1
:107FF000CDE90321109B02930299012380F84530BB
:108000000368009104991E6A4FEA45086F1008F151
:108010000103491B04467F42B04700267300B54266
:10802000059303F1010A3FDD002F1DDB049B029A3B
:108030000092A3EB0609039A2368AA18D3F820B08C
:10804000494653462046D847029A23680092039A2D
:10805000D3F820B0521B534649462046D847A8F1D2
:108060000208A7EB0807013D059B029A0092033323
:108070001F44049B039AA3EB05092368013608F10A
:10808000010AD3F820B0B218534649462046D847D3
:10809000029A23680092039AD3F820B0921B5346A9
:1080A00049462046D847B9E794F8463084F8453029
:1080B00073B994F844305BB9012184F84410452029
:1080C0000DF010FB044807B0BDE8F04F01F0ACB96B
:1080D00007B0BDE8F08F00BF980500202DE9F04FF4
:1080E00087B09246119A1C469DF840300132C4F187
:1080F0000008039203F0010203F0020306468946DA
:10810000C4F10107A8EB0408002504920593AC42D2
:108110004DDD002F25DB049B73B1119B3268129952
:1081200000910133D2F820B003EB450304EB0A02BF
:10813000A9EB05013046D847059B73B1119B326806
:10814000129900910133D2F820B003EB4503AAEB5A
:108150000402A9EB05013046D84708F10208013CAA
:1081600047440135049B07EB450701376BB1336882
:10817000129A0092D3F820B0039B0AEB050203EB9E
:108180004403A9EB04013046D847059B002BBED021
:108190003368129A0092D3F820B0039BAAEB050231
:1081A00003EB4403A9EB04013046D847AFE707B01F
:1081B000BDE8F08F2DE9F04F85B0DDE90E794FF085
:1081C000010880F84580CDF8009006680392D6F843
:1081D00020B004460D469A46D847039BCDF8009040
:1081E000DA1923682946D3F820B0013A53462046CD
:1081F000D847039E2368CDF800904644023F2946A5
:10820000D3F81CB032463B462046D8472368CDF809
:10821000009005EB0A013246DD6901393B462046F4
:10822000A84794F8463084F8453073B994F8443040
:108230005BB984F84480414645200DF053FA044868
:1082400005B0BDE8F04F01F0EFB805B0BDE8F08F24
:10825000980500202DE9F04F87B0DDE91167049300
:10826000109B05934FF0010380F84530049BA3EB6E
:1082700046050368009701EB060A8B46D3F8208079
:1082800051462B4604469146C047059B00974B44F8
:108290000393039A2368013AD3F8208051462B4672
:1082A0002046C047059B009706EB0908A3EB46094B
:1082B00023684246DD6959464B462046A847049B41
:1082C00000970BEB030523684246691ED3F81CB0E8
:1082D00020464B46D8470123424600935146334639
:1082E00020460197AD1BFFF765FD013D0223424685
:1082F00000932946334620460197FFF75BFD039B19
:108300000197A3EB060808F1FF38042300934246C7
:10831000334629462046FFF74DFD08230093019779
:108320003346424651462046FFF744FD94F8463016
:1083300084F8453083B994F844306BB94FF00103A9
:1083400084F84430012145200DF0CCF9044807B0F1
:10835000BDE8F04F01F068B807B0BDE8F08F00BF8E
:10836000980500202DE9F04F87B01746109A049227
:10837000DDE9115A049E026805934FF00108A6EB4F
:10838000450680F8458007EB050BCDF804A0009664
:10839000566A5A4604468946B047059BCDF8008088
:1083A000A3EB4506049B1F44A944013E7A1B2B46C0
:1083B000013A49462046CDE9016AFFF78FFE0223C4
:1083C0000093CDE9016A2B465A4649462046FFF7FD
:1083D00085FE94F8463084F8453073B994F84430FB
:1083E0005BB984F84480414645200DF07BF9044890
:1083F00007B0BDE8F04F01F017B807B0BDE8F08F47
:1084000098050020C0E90311704780F8A31080F898
:10841000A420704781777047082916D890F8E83073
:1084200013B1B0F9BE0070470129437F07D1D0F8DE
:10843000B42022B1107B10FB03F000B27047044A55
:108440000C2000FB0121087AF5E70020704700BFEF
:1084500084E90100017FFFF7DFBF00002DE9F04153
:10846000224C069D1E464FF6FF73C0E91633884620
:108470004620002117460DF035F92A21204600F04C
:10848000E3FF012146200DF02DF91FFA88F1204667
:1084900000F0DDFF06EB0801013989B2204600F04B
:1084A000D6FF002146200DF01DF92B21204600F0BB
:1084B000CBFF012146200DF015F9B9B2204600F09E
:1084C000C6FFE919013989B2204600F0C0FF00213A
:1084D00046200DF007F92E21204600F0B5FF0121BE
:1084E0004620BDE8F0410DF0FDB800BF9805002022
:1084F00090F8443037B5044693B100250C4B0093F7
:108500008DF805508DF8045002AB80F8445013E903
:108510000600084800F06AFF294645200DF0E2F801
:10852000012384F8463084F8453003B030BD00BFE5
:1085300080F0FA029805002090F84430002280F87C
:10854000462080F845200BB9FEF730BA704700008E
:10855000D200044802F4FC6242EAD30200EA01209D
:108560001043704700F8FFFF2DE9F04390F8855065
:1085700085B00446002D40F08F80436FCF18436EC6
:108580009F42C0F28580836F02EB0308836E98459B
:108590007EDBC36E9F427BDA036F984578DA90F8F2
:1085A0004590B9F1000F0DD090F8443080F8455057
:1085B0005BB9012180F8441045200DF093F839484B
:1085C00000F032FF94F8443093B10025364B02930B
:1085D0008DF80D508DF80C5004AB13E906003148AE
:1085E00084F8445000F002FF294645200DF07AF847
:1085F000012633464246394620460096FFF72EFFB5
:108600000021284800F020FF0021264800F01CFF30
:1086100000210546234800F017FF002107462148A6
:1086200000F012FF294603463A462046FFF790FF26
:108630003146054645200DF055F894F845305BB9B4
:1086400094F8443053BB452084F8446031460DF023
:1086500049F8144800F0E8FEB9F1000F18D094F87A
:10866000443093B10026114B02938DF80D608DF8C4
:108670000C6004AB13E906000A4884F8446000F07B
:10868000B5FE314645200DF02DF8012384F8453024
:10869000284605B0BDE8F0830025F9E7B9F1000FE1
:1086A000E0D1F5E798050020002D310180F0FA02B5
:1086B00090F8A83013B989B2084670470B0603D466
:1086C000002380F82030F6E790F82030A3B901F0BD
:1086D000E002C02A08D18A0102F4F8624284012231
:1086E00080F820200021E7E701F0F002E02AE2D143
:1086F0000A0342840222F3E7022BB0F9222008D1B8
:10870000890101F47C6313434384012380F8203002
:10871000E8E701F03F01114389B20023418480F86A
:108720002030C9E72DE9FF4190F88530044688469E
:108730009BB9FFF7BDFF054678B1B8F10D0F0CD01E
:1087400094F8E8206AB11F2802D8B8F10A0F04D1C2
:1087500023682946DB6C20469847012004B0BDE819
:10876000F081D4F8B4300A2808BF2025002B6AD144
:10877000217F02291BD1A5F120039BB25F2BECD8EE
:10878000624B2B4413F8202C063202F4FC721023A7
:10879000677FB8F10A0F07FB03F622D1D4F88C30BB
:1087A0003344C4F88C300023C4F88830D5E7CA1E9F
:1087B000052A10D8A5F120039BB25F2BCDD85448D1
:1087C0000C2606FB010306FB01015B682B4413F832
:1087D000202C0B7ADCE7012912BF1A460823062257
:1087E000D6E794F8A3308BB1D4F8883007FB023772
:1087F000236820465B6B9847874207DDD4F88C30AE
:108800003344C4F88C300023C4F8883094F8A43082
:1088100053B12368D4F88C601B6B20469847B04254
:10882000DCBF0023C4F88C302368227F00929E6A4C
:108830002946D4E922232046B047D4F8883018448A
:10884000C4F8880089E7B8F10A0F0AD1C4F8882073
:108850001B7BD4F88C20617F01FB0323C4F88C3090
:108860007BE75A89AA42FFF478AF1E89B542FFF42C
:1088700074AF5B68AE1BB6B20C2202FB06363379CE
:10888000002B3BD07279002A38D094F8A320D2B1C3
:1088900096F90770627F1F44D4F8883002FB0737CF
:1088A000236820465B6B984787420CDD0023C4F8A1
:1088B0008830D4F8B430D4F88C20197B637F01FB66
:1088C0000323C4F88C3094F8A43053B12368D4F84F
:1088D0008C701B6B20469847B842DCBF0023C4F85D
:1088E0008C30627F0292226923680192E2680092D2
:1088F0005F69D4E922122B462046B847B179637FDD
:10890000D4F8882001FB03234EE700BFC8F1010023
:1089100084E90100F0B5168890F8A800771CBFB272
:1089200017808D5DACB280B128060ED505F0E00051
:10893000C0280CD1012B0AD902361680CC5DAD01BE
:1089400004F03F0405F4F8652C432046F0BD05F023
:10895000F000E028F9D1022BF7D9B31C9BB21380A9
:108960000336CC5D1680CB5CA40103F03F0304F416
:108970007C6443EA05352C43A4B2E6E723F4FC60AB
:1089800030B580B222F4FC6403F4FC6302F4FC62B0
:10899000251AD21A8C106C434A4300EB941003EB57
:1089A000122303F4FC6320F4FC60184380B230BD52
:1089B00070B5B0F8BC6000239CB2A6420AD9D0F8CA
:1089C000CC5035F813508D4203F10103F4D11480DB
:1089D000012070BD0020FCE7F7B5064690F8E800DE
:1089E00000283CD000240D46274615F8011B89B30A
:1089F0003046FFF75DFE01460028F6D0202803D15F
:108A0000B6F8C0301C44F0E70DF106023046ADF870
:108A10000670FFF7CDFFC8B1BDF806302CB9D6F807
:108A2000E020D256002AB8BF54422A7812B996F8EC
:108A3000A2201AB1D6F8D820D35CE3E7D6F8E0201C
:108A4000D6F8D410D256CB5C1344DBE7B6F8C0306E
:108A50000133D7E786F8A21020B203B0F0BD931E11
:108A6000062B13D8264B0C2404FB02320139536821
:108A70000446203B11F8012FAAB1A2F120005F2883
:108A800094BF9A5C93F820201444F3E7D6F8B430EE
:108A90008BB96FF005034B43062001FB003411F83E
:108AA000012B002AF9D1707F002310FB04F086F817
:108AB000A23000B2D1E70D4604460C2715F8011B81
:108AC0000029F0D03046FFF7F3FDD6F8B420138923
:108AD0008342F3D851898142F0D3C31A50682A786F
:108AE0009BB207FB030312B996F8A22012B19B793F
:108AF0001C44E3E793F907201B791344F8E700BF10
:108B000084E90100B0B515468A68023212B2D31D5D
:108B100023F0070300AFADEB030D04460023084626
:108B200069460CF05AFA2A4669462046FFF754FF78
:108B3000BD46B0BD2DE9F04F8BB01F469DF85030BB
:108B40000691082B04460392049300F2A4811A466E
:108B5000FFF742FF049B617F94F8E8201FFA81FB36
:108B6000012B1FFA80F94FEACB08A37F23D1D4F859
:108B7000B40078B392BB94F8A0809A1F08FB0BF85E
:108B8000022A47445FFA88FA05D894F8A12002FB2C
:108B90000B881FFA88F8049A05926525002B43D0AC
:108BA000013B0A2B40D8DFE803F030373D6A71788B
:108BB0007B82898C9300002005908246012582B13A
:108BC0002046079394F8C6A0FFF744FC1FFA80F8EC
:108BD000079BE3E7049D05908246F0E7049D002093
:108BE000F9E7049A012AD9D00793AC48049B0C22D8
:108BF00002FB0302204692F809A01AFB01FA19466B
:108C00005FFA8AFAFFF708FCE0E7039BA3EB59033E
:108C100003930135EDB207E0039BA3EB0903039334
:108C20000235F7E7A7EB580706980FF072FB059B94
:108C3000002B00F0B780D4E903239A4200F0B28001
:108C400094F8A08094F8A130984418FB0BF80DF12B
:108C5000280B1FFA80FA00202BF8020D1FFA88F863
:108C6000BDF8263053453AD2002838D1AAEB030389
:108C70009BB25A4606992046FFF74CFEF0E7039B4D
:108C8000A3EB59030393A7EB5807C2E7039BA3EB9E
:108C900009030393A7EB5807C2E7A7EB0807C3E74D
:108CA000039BA3EB59030393A7EB0807B1E7039BCF
:108CB000A3EB09030393A7EB0807B1E7A7EB0A07A8
:108CC000B2E7039BA3EB59030393A7EB0A07A0E7C3
:108CD000039BA3EB09030393A7EB0A07A0E7D4F8D0
:108CE000B430198988425AD35A89824257D35B6873
:108CF000627F401A80B20C2101FB003094F8A01072
:108D0000C379206913FB02F34FFA83FBBBF1000F19
:108D1000CDE90080D8BFA9EB0B09236801FB1272D3
:108D20000399D3F824A0D4BF1FFA89F94FF0000BA0
:108D30004B4659442046D047643DEDB206980FF0AB
:108D4000E8FA83B294F8E80007930023ADF82630E0
:108D500000285BD0BDF90C30C4F888303BB2C4F8B1
:108D60008C30D4F8903094F8B0A02BB1BAF1000F49
:108D700002D1012384F8B030BDF82630079A9A4218
:108D800013D9D31A06999BB20DF126022046FFF79C
:108D9000C1FD23680146DB6C20469847ECE74FF0A5
:108DA000000BC9E74FF0000BC8E784F8B0A00FFA3A
:108DB00089FAD4F890304B4524DDD4E9031291426E
:108DC00020D0039905984944594409B258B10398F1
:108DD00094F8A0C058440390607F0CFB1077039870
:108DE00082440FFA8AFA022D2DD0032D44D0012D92
:108DF00008D1CDE900822068456AA3EB09033A4611
:108E00002046A84750460BB0BDE8F08F8246BDF81B
:108E10002630079A9A42CCD9D31A9BB20DF126027A
:108E200006992046FFF776FD049A236800929B6A14
:108E3000039A1E46524401463B462046B0478244B0
:108E40000FFA8AFAE3E7CDE900822068A3EB090371
:108E5000456A5B103A462046A847D4F8903020690E
:108E6000039AA3EB09035B10CDE90080D11A2268B5
:108E700009B2556A3A46C3E78B42B8BF19B2039BA1
:108E8000CDE900824B441E4623683A465D6AA1EB59
:108E90000903711AB4E74FF0000AB3E784E901004F
:108EA0002DE9F04182B015468A68023212B21E46A0
:108EB000D31D23F0070302AFADEB030D0DF108083E
:108EC00004460023084641460CF087F83B7E009399
:108ED0002A46334641462046FFF72CFEBD46BDE8F4
:108EE000F0812DE9F04FD0F88830D0F898209A42E0
:108EF00018BFC0E92533202993B00446D0E90357B1
:108F000039D81DD190F8B02082B1B0F8C020D0F887
:108F10009410BFB2134402680197B0F8BE000090ED
:108F2000556AD4F88C205B1A2046A847D4F88820CC
:108F3000B4F8C0301344C4F88830C4E9253317E0CE
:108F40000A2918D1D0F88C30B0F8BE601E4490F8D1
:108F5000A430C0F88C600025C0F88850C0E92555C1
:108F600033B103681B6B9847864201DBC4F88C5011
:108F700013B0BDE8F08F12AA4FF0000822F8028D5E
:108F80002046FFF715FD002800F0988194F8A330E3
:108F9000D3B1BDF84630D4F8D420D65CD4F88820BC
:108FA0001644D4F8E020D3561E44236820465B6B59
:108FB0009847864208DDD4F88C30B4F8BE20C4F857
:108FC00094801344C4E9228394F8A4306BB1D4F89C
:108FD0008C30B4F8BE601E44236820461B6B984753
:108FE0008642A4BF0023C4F88C30D4F88830BDF882
:108FF0004620D4F8E0101BB98B565B42C4F8883089
:10900000D4F8B830B4F8C6000D93D4F88C300344CB
:10901000D4F8DC0030F812001B1A9BB20993D4F884
:1090200088008B56BDF924B003449BB204932046BC
:10903000BDF910A0FFF75CFA94F8B060002E00F0C4
:10904000C780D4F8D830BDF84620D4F894109E5C80
:10905000D4F888305B1A1E4433B2002B039340F3DC
:10906000B480D4F8DC00B4F8C63030F812209B1A73
:109070001BB2002B0ADD20692268CDE90030039B7A
:10908000D2F82480D4F88C202046C047D4F894101D
:1090900051450FDA22690192D4F8D000BDF846207C
:1090A0002368825C0092D3F824805A46AAEB01031D
:1090B0002046C047D4F89430BDF846C09A45BDBF9D
:1090C000049A9B1A1BB200230B93D4F8D43013F8E4
:1090D0000C10D4F8D83013F80C20D4F88830514450
:1090E000134499420DDA20690190D4F8D000226827
:1090F00010F80C000090D2F824805B1A5A462046E3
:10910000C047BBB20793ABB2CDF828A0CDF814A0EE
:109110004FF0000908930F93BDF84630D4F8D020E3
:10912000D25C4A4540F3A28009EB0B030693099BEE
:109130004B4400279BB2B8463D460E93BDF84620EF
:10914000D4F8D4309B5CBB4275DDD4F8E41051F800
:1091500022200D99394409FB03139B5C0C93002BCF
:109160004DD0B8F1000F09D0079A236800921B6A0E
:10917000069A0A991E4620464346B0470C9BFF2B91
:1091800033D045B1012D236825D11D69089BDDE948
:1091900005122046A847236C2BB1049A0E99D019CA
:1091A00080B298470790079B0F9A0C992046FFF7CB
:1091B000E5FB2368069A1D690AEB07010346204672
:1091C000A8474FF00008002517E0002303935DE750
:1091D00003960B9695E7089A0092D3F82080DDE974
:1091E00005122B462046C047D5E71DB9049B3B44DA
:1091F0001BB2059301354FF0000801379EE74DB1D2
:10920000089A236800921B6ADDE905121E46204673
:109210002B46B04794F8B050002DEED00B9BBB42CC
:10922000D1DCB8F1000F03D1049B3B441BB20A937D
:1092300008F10108C7E74DB12368089A00921F6A38
:1092400005992B4609EB0B022046B847B8F1000FF1
:1092500009D02368079A00921D6A0A99434609EBD0
:109260000B022046A84709F1010955E7039BABB162
:10927000B4F8BE10D4F88C300B4409995B1A9B1AD1
:109280001BB2002B0ADD20692168CDE900305A4469
:109290004D6A039BD4F894102046A847BDF8463089
:1092A000D4F8D820D25CD4F888301344C4F888307D
:1092B0002046FFF741F9D4F888303EE6B4F8C610EE
:1092C000D4F88C20B4F9C200B4F8C0300A44ADB26E
:1092D000121ACDE90005D4F888102046FEF76AFF7F
:1092E000B4F8C0305A1CD4F888301344C4F888301D
:1092F000E1E70000F8B5044610300D4617461E465B
:1093000000F03EF904F1240000F03AF90020C4E92D
:109310000E0084F8400060722DB90A4B0A4A0B48CF
:1093200022210DF09BFD9DF8183063719DF81C30D3
:10933000E3719DF8203025602771A67123722046C5
:10934000F8BD00BFA8F301001CF40100B9F301004F
:10935000437A23B98372C372C36001234372704797
:109360001FB5044604AB006803E906000AF078F86C
:109370009DF80D30227AE1790093206800230AF0ED
:1093800095F92068029A9DF80C100AF08CF8206874
:1093900004B0BDE810400AF059B8000070B50546A9
:1093A000FFF7D6FF0F4E0079182404FB006393F9F2
:1093B00008100CF0C1F9A87904FB006393F90810B8
:1093C0000CF0BAF9687904FB006494F908100CF009
:1093D000B3F9054B284693E80600BDE87040FFF757
:1093E000BFBF00BF54050200DC05002017B4837A1C
:1093F0006C4684E8060043B19A070DD5EFF310835D
:10940000B3FA83F35B09C37272B694E8060003B043
:109410005DF8044BFFF7A4BFDB0742BF014B828915
:10942000DA60F2E700280040837A53B19A0703D547
:10943000C37A33B162B67047DB0742BF014B828902
:109440001A6170470028004000680AF019B8F8B5A2
:10945000064600680C460D460AF00DF801284FEA52
:109460001427E4B20DD121463046FFF7EDFF39460F
:1094700060F307053046FFF7E7FF60F30F25A8B25A
:10948000F8BD39463046FFF7DFFF214660F30F2570
:109490003046FFF7D9FF60F30705F0E730B5194B09
:1094A000194A1A6085B000255D711D7102243023B0
:1094B0000093CDE9015431232F2214491448FFF7BA
:1094C00019FF55230093CDE9015456235422114925
:1094D0001148FFF70FFF3E230093CDE901543F23CE
:1094E0003D220E490E48FFF705FF43230093CDE9C7
:1094F0000144442342220B490B48FFF7FBFE05B011
:1095000030BD00BFDC05002000093D00902F002089
:10951000CC040020542F0020100500209C2F002098
:1095200054050020A82F002098050020084B18683B
:1095300040B9EFF31082074942B972B6BFF35F8FAB
:1095400001220A701A6801321A6070470870F9E740
:10955000E8050020E4050020074B1A6852B11A689C
:10956000013A1A601B682BB9044B1B7813B1BFF387
:109570005F8F62B6704700BFE8050020E405002059
:10958000FF2202700321002242708270C2700271B9
:1095900041718260C26002617047000010B4184BD4
:1095A00003EB011191F84E10C9B211F001040CD077
:1095B000017803EB0113012183F84E10042343705B
:1095C0008368D3B15DF8044B184711F0020F08D03F
:1095D000017803EB0113022183F84E10C368447035
:1095E000EFE7490709D5017803EB0113042183F85C
:1095F0004E10072343700369E3E75DF8044B70479F
:1096000000A0004108B5FFF791FF074B198C074BED
:1096100001F01F0153F8210008B1FFF7BFFFBDE8BB
:109620000840FFF799BF00BF00A00041EC050020F3
:10963000704700000748084941F24C0341F24D02CF
:10964000C35C3033835441F24E033A22C254034A7E
:109650000CF0A2B96C06002031960000000000203A
:1096600010B5034B0360044601F0DCF9204610BD41
:1096700078F4010010B50446FFF7F2FF20464FF4DE
:109680008A710CF08EF9204610BD000070B5B0B0A4
:1096900019AC054642F60211204603F029FA0226CB
:1096A0001123CDE915361CA910234D2268461493C9
:1096B0000DF0C5FC94E80E00284601F01DFA064B9B
:1096C0002B602846002332462146ADF8643001F075
:1096D00069FA284630B070BD78F4010008B501F091
:1096E0006DFA007800F0010008BD08B501F066FAD7
:1096F0000078C0F3400008BD0A6802608A88828052
:109700007047000070B50D4688B0044612200DF079
:1097100013FC6A792B7804922A790392EA780292F0
:10972000AA7801926A7800921221154A06460EF034
:1097300047FD04F108032360FEB130460EF0E9FD59
:109740000F2806EB0005079007D9002207A920463D
:109750000CF0DAFA079B2060A3602A4631462068A5
:109760000CF026FB079B2268636000213046D15431
:109770000DF0EAFB204608B070BD02480CF0DBFC9F
:1097800080F401009EF4010073B5531A0F2B0446B8
:109790000D461646019306D9002201A90CF0B4FA31
:1097A000019B2060A3603246294620680CF000FB34
:1097B000019B226863600021D15402B070BDF8B5EE
:1097C000054617460E1A0024B44207EB040006D0E3
:1097D00018B1592229190DF032FC5934F4E7F8BDBB
:1097E000F8B500250446C0E9025505612449163044
:1097F000FFF782FF29461F2204F11C000DF043FCF5
:1098000004F1500384F83B5084F84550C4E9123504
:1098100084F8505084F86050A4F86250A4F8645062
:1098200029461B2204F166000DF02DFC04F14806C8
:1098300084F8815004F2F12704F182052846593555
:1098400003F006F9AF42F9D1002584F8F15284F80B
:109850004450A4F86250C4F8F4520A4930460CF05F
:10986000E0FB094BE36384F8605025642570E570E4
:1098700025716571A5716570A5702046F8BD00BFA2
:10988000C8F401001EB80100F1D8FFFF82B06B469A
:1098900083E806009B88C0F81610438302B0704727
:1098A0000123C163437170470164704780F8F81267
:1098B0007047000030B51F2287B0044600211C30DD
:1098C0000DF0E1FB0F4A002502AB1146684684F813
:1098D0003B50E563A4F844500093FFF755FF6946F9
:1098E00004F148000CF0EFFA68460CF027FA84F80F
:1098F0006050A4F86250A4F8645084F8815007B016
:1099000030BD00BF1EB801002DE9F843D0E9006466
:10991000A31B1B4C5C4314BF23460123E4180546DC
:109920000F469046A1EB0606164B22D29C4220D849
:1099300004BBA14619EB060003D0592241460DF0A5
:109940007EFB4A4639462868FFF739FF696800F10F
:1099500059023846FFF733FF0646286808B10BF076
:1099600059FC592303FB0494C5E90096AC60BDE89B
:10997000F8831C46592060430BF048FC8146D9E728
:10998000E9473FFA0B5CE00238B5D0E90135AB425C
:1099900004460A4608D01BB1592218460DF04FFB69
:1099A00063685933636038BD1946FFF7ADFFFAE7C6
:1099B0002DE9F04FD1F800800446E9B0FFF77AFFB7
:1099C00098F80730237598F806306375414602A869
:1099D000FFF792FE0298BDF80C30C4F816006383BE
:1099E00098F90830E36308F10A0A98F8092051460B
:1099F00004F11C000DF023FB98F8093084F83B308B
:109A0000002704AD98F80930BB4240F2FA8007F114
:109A1000010947445FFA89F997F80AB0BBF1010FD1
:109A200009EB0B0741D91F2F3FDC09F101010BF1B5
:109A3000FF36C1443246514428460DF000FB99F8E8
:109A40000A30072B0FD8062B80F09580032B60D8A7
:109A5000022B2CD2012B24D00023DAB2964203F140
:109A60000103FADC21E00A2B00F0BF80C0F0A780E0
:109A7000192B00F0BF80FF2BEED16A782B78ABF169
:109A8000030B43EA02235FFA8BFBA4F864305A46C7
:109A90000DF1120104F166000DF0D1FA84F881B0E5
:109AA00003E099F80B3084F84430FFB2AAE706F0DF
:109AB000FE0602364FF000094FF0590B05EB090383
:109AC00009F10209B145F0D0194602220CA8019310
:109AD00002F0D8FF94F8F102421C0BFB004084F81E
